S01500004469766520436F6D70757465722E7372656318
S3151000800080B582B000AF144B7B60144B3B607A682E
S315100080103B689A420CD007E03B681A1D3A607A68B2
S31510008020111D796012681A603A680D4B9A42F3D3A3
S315100080300C4B3B6004E03B681A1D3A6000221A6044
S315100080403A68094B9A42F6D3084B9847084B98471B
S31510008050C046BD4602B080BDEC0B0110EC0B011002
S31510008060540C0110540C0110DC8F011005EF001098
S31510008070CDCF001010B5064C2378002B07D1054B39
S31510008080002B02D0044800E000BF0123237010BD6E
S31510008090540C011000000000E8970110084B10B5B1
S315100080A0002B03D00749084800E000BF07480368C3
S315100080B0002B00D110BD064B002BFBD09847F9E7DB
S315100080C000000000580C0110E8970110E897011005
S315100080D00000000080B500AF024B9847C046BD4671
S315100080E080BDC046D99C001090B58BB002AF7860A9
S315100080F039601F4B002178689847031E01D01D4B2D
S3151000810000E01D4BFB611A4B002178689847031E4F
S3151000811004D07B6880221206534000E07B68BB6166
S31510008120164BB869984703007B61154B78699847D9
S31510008130021C144B111CB8699847031C3B61124B67
S31510008140124938699847031C1A1C0C4B101C984787
S315100081500300FB607C69FA690D493868FB68009377
S3151000816023000C4CA047C046BD4609B090BDC04682
S3151000817001DA0010C8F70010CCF700102DE300103C
S315100081806DE30010F5DF0010B5DD00100000204192
S31510008190D0F70010F9F0001090B583B000AF7860FA
S315100081A07B681B681B781A007B681B685B78214903
S315100081B02148224CA0477B68DB68214A1100181C15
S315100081C0204B98477B689B681A687B689B685B683E
S315100081D01D491E48194CA0477B681B7C1A001C4978
S315100081E01C4B1800154B9847002100201A4B984736
S315100081F004201A4B9847104B1800194B9847032028
S31510008200164B98470E4B1800154B98470120134BE9
S3151000821098470E4B1800124B9847124B1800104BEC
S3151000822098470C4B18000E4B9847C046BD4603B0F6
S3151000823090BDC046E0F70010700C0110F9F0001068
S3151000824030100110E9800010ECF70010A00E01109C
S315100082500CF8001080100110E98C00101D8D001014
S315100082603D8D0010D010011080B582B000AF78603F
S315100082700A00BB1C1A807B689B889AB2BB1C1B88A1
S3151000828013439AB27B689A80C046BD4602B080BD41
S3151000829080B582B000AF78600A00BB1C1A807B687C
S315100082A09B889BB21BB2BA1C0021525ED24312B2FB
S315100082B013401BB29AB27B689A80C046BD4602B084
S315100082C080BD000080B584B000AF39601100FB1D81
S315100082D0021C1A70BB1D0A1C1A703B681B0CFB6033
S315100082E0FB1D1B78002B28D1BB1D1B78002B12D031
S315100082F0FB68002B07D13B689BB2124A190010008D
S31510008300114B984719E0FB689BB2104A19001000F0
S315100083100D4B984711E0FB68002B07D13B689BB2C9
S31510008320084A190010000A4B984706E0FB689BB2F2
S31510008330064A19001000064B9847C046BD4604B0C1
S3151000834080BDC04600000140698200100010014047
S315100083509182001080B582B000AF0200FB1D1A702A
S31510008360BB1D0A1C1A70FB1D1B785B09D8B2FB1DBE
S315100083701B781F22134001229A401100BB1D1B7847
S315100083801A00034B9847C046BD4602B080BDC04692
S31510008390C5820010B0B582B000AF05000C00100009
S315100083A01900FB1D2A1C1A70BB1D221C1A707B1D7E
S315100083B0021C1A703B1D0A1C1A702A201B4B984768
S315100083C000201B4B9847FB1D1B781A4A12789B18E6
S315100083D01800174B98470020154B98477B1D1B78A4
S315100083E0144A12789B181800114B98472B200F4BE4
S315100083F0984700200E4B9847BB1D1B780E4A1278E3
S315100084009B1818000A4B98470020094B98473B1DAC
S315100084101B78094A12789B181800054B98472C2090
S31510008420024B9847C046BD4602B0B0BDD989001070
S31510008430218A0010441101104511011090B585B024
S3151000844002AF0200BB1D1A80084B1B781A00084B9E
S315100084501B781900BB1D1B8800930B000021002000
S31510008460044CA047C046BD4603B090BD481201104B
S315100084704A12011079840010B0B584B000AF05001F
S315100084800C0010001900BB1D2A1C1A803B1D221C53
S315100084901A80BB1C021C1A803B000A1C1A80BB1DCA
S315100084A000229B5E574A1278934200DBA5E03B1DE3
S315100084B000229B5E544A1278934200DB9DE0BB1D5E
S315100084C000229A5EBB1C00215B5ED318013B4D4A0D
S315100084D01278934208DB4B4B1B789AB2BB1D1B8854
S315100084E0D31A9AB2BB1C1A803B1D00229A5E3B001F
S315100084F000215B5ED318013B434A1278934208DB96
S31510008500414B1B789AB23B1D1B88D31A9AB23B007B
S315100085101A80BB1D1B88D8B23B1D1B88D9B2BB1D48
S315100085201B88DAB2BB1C1B88DBB2D318DBB2013B4B
S31510008530DCB23B1D1B88DAB23B001B88DBB2D318BA
S31510008540DBB2013BDBB22200304CA0472023FB18E4
S315100085501B881B0A9AB20F23FB181A700E23FB18DE
S315100085602022BA1812881A702023FB181B881B0A9F
S315100085709BB2DAB20C23FB181A702023FB181B8847
S31510008580DAB20C23FB185A7001210720204B9847AA
S3151000859000210C201E4B98473B1D3A0012881A806A
S315100085A021E0BB1DBA1C12881A800FE0194B1B68FC
S315100085B00C22B91802221800174B9847BB1D00222F
S315100085C09B5E9BB2013B9AB2BB1D1A80BB1D00225B
S315100085D09B5E002BEADC3B1D00229B5E9BB2013B9F
S315100085E09AB23B1D1A803B1D00229B5E002BD8DCE5
S315100085F001210C20064B984700E0C046BD4604B04A
S31510008600B0BDC046481201104A12011095830010E1
S315100086105583001040110110899F001090B585B048
S3151000862000AF040008001100BB1D221C1A803B1D60
S31510008630021C1A80BB1C0A1C1A80BB1D00229B5EE2
S31510008640002B47DBBB1D00229B5E244A1278934207
S3151000865040DA3B1D00229B5E002B3BDB3B1D0022BC
S315100086609B5E1F4A1278934234DABB1D1B88D8B220
S315100086703B1D1B88D9B2BB1D1B88DBB20133DAB296
S315100086803B1D1B88DBB20133DBB2164CA047BB1C6B
S315100086901B881B0A9BB2DAB20C23FB181A70BB1C80
S315100086A01B88DAB20C23FB185A70012107200E4BD7
S315100086B0984700210C200C4B98470C4B1B680C223A
S315100086C0B918022218000A4B984701210C20064BB4
S315100086D0984700E0C046BD4605B090BD481201104F
S315100086E04A12011095830010558300104011011095
S315100086F0899F001080B584B000AF0200FB1D1A7070
S315100087003620764B98470F23FB18FA1D1278032153
S315100087100A401A700F23FB181B78012B3ED002DC7F
S31510008720002B07D0D6E0022B00D16BE0032B00D133
S315100087309CE0CFE06A4B1B78022B03D0684B1B786A
S31510008740042B03D1C020674B984702E0C820654B25
S315100087509847634B1B78012B06D1634B80221A7006
S31510008760624B80221A7010E05D4B1B78042B06D1E9
S315100087705D4BA0221A705D4B50221A7005E05A4BC1
S31510008780A0221A70594B80221A70594B1A78594BDD
S315100087901A70594B1A78594B1A709BE0504B1B782C
S315100087A0022B03D04E4B1B78042B03D1A0204D4B2C
S315100087B0984702E0A8204B4B9847494B1B78012B52
S315100087C006D14A4B80221A70474B80221A7010E04D
S315100087D0434B1B78042B06D1444BA0221A70424BF4
S315100087E050221A7005E0414BA0221A703E4B80228F
S315100087F01A703F4B1A78414B1A703F4B1A783D4B03
S315100088001A7067E0364B1B78022B03D0344B1B785B
S31510008810042B03D10020334B984702E00820314B3C
S3151000882098472F4B1B78012B06D12F4B80221A709D
S315100088302E4B80221A7010E0294B1B78042B06D180
S31510008840294BA0221A70294B50221A7005E0264B8C
S31510008850A0221A70254B80221A70254B1A78254BA8
S315100088601A70254B1A78254B1A7033E01C4B1B785F
S31510008870022B03D01A4B1B78042B03D16020194B03
S31510008880984702E06820174B9847154B1B78012B29
S3151000889006D1164B80221A70134B80221A7010E0E4
S315100088A00F4B1B78042B06D1104BA0221A700E4BBF
S315100088B050221A7005E00D4BA0221A700A4B802226
S315100088C01A700B4B1A780D4B1A700B4B1A78094B02
S315100088D01A70C046C046BD4604B080BDD989001086
S315100088E03C110110218A00104A1201104812011081
S315100088F049120110441101104B12011045110110BB
S3151000890080B584B000AF78607B685A1C7A600F22FD
S31510008910BA181B7813704BE07B685A1C7A601B7868
S3151000892018002A4B98477B685A1C7A600E22BA1890
S315100089301B7813700E23FB181B789AB20C23FB18A6
S3151000894080210A401A800E23FB180E22BA181278BC
S315100089507F210A401A7006E07B685A1C7A601B78E1
S3151000896018001B4B98470E23FB181B780E22BA18BB
S31510008970591E1170002BEFD10C23FB181B88002BEE
S3151000898016D07B685A1C7A601A780C23FB181A804A
S315100089900C23FB181B88FF2B04D10C23FB18FA227F
S315100089A052001A800C23FB181B881800094B984795
S315100089B00F23FB181B780F22BA18591E1170002BA3
S315100089C0AAD1C046BD4604B080BDC046D9890010A4
S315100089D0218A001049D6001080B582B000AF02007F
S315100089E0FB1D1A70002107200A4B984700210C2006
S315100089F0084B9847084B1B68F91D01221800074BB6
S31510008A00984701210C20034B9847C046BD4602B03B
S31510008A1080BDC0465583001040110110899F00107B
S31510008A2080B582B000AF0200FB1D1A70012107202D
S31510008A300A4B984700210C20084B9847084B1B6897
S31510008A40F91D01221800074B984701210C20034BF2
S31510008A509847C046BD4602B080BDC046558300103B
S31510008A6040110110899F0010B0B586B002AF050005
S31510008A700C0010001900BB1D2A1C1A803B1D221C5D
S31510008A801A80FB1C021C1A703B000A1C1A80904BA1
S31510008A901B78002B00D018E1BB1D00229B5E8D4A6F
S31510008AA01278934200DB0FE13B1D00229B5E8A4A3F
S31510008AB01278934200DB07E1BB1D0021595E242387
S31510008AC0FB181A7813005B009B185B00CB18013B50
S31510008AD0002B00DAF8E03B1D00229A5E2423FB18D7
S31510008AE01B78DB00D318013B002B00DAECE00F23D8
S31510008AF0FB1800221A70DFE0FB1C1A7813009B008B
S31510008B009A180F23FB181B785BB2D2180E23FB188A
S31510008B1072498A5C1A700D23FB1800221A70BAE08B
S31510008B200E23FB181B78012213404DD02423FB186B
S31510008B301B78012B19D10F23FB181B785BB29AB245
S31510008B40BB1D1B88D3189BB218B20D23FB181B78BC
S31510008B505BB29AB23B1D1B88D3189BB219B23B006D
S31510008B601B881A005E4B984784E00F23FB181B786E
S31510008B705BB29BB22422BA18127892B253439AB2BD
S31510008B80BB1D1B88D3189BB218B20D23FB181B787C
S31510008B905BB29BB22422BA18127892B253439AB29D
S31510008BA03B1D1B88D3189BB219B22423FB181B78C4
S31510008BB01AB22423FB181B781CB23B001B880093A7
S31510008BC02300484CA04755E02023FA183B00128892
S31510008BD01B889A424ED02423FB181B78012B1AD1DE
S31510008BE00F23FB181B785BB29AB2BB1D1B88D318D8
S31510008BF09BB218B20D23FB181B785BB29AB23B1DC1
S31510008C001B88D3189BB21BB22022BA1812881900DF
S31510008C10334B98472EE00F23FB181B785BB29BB2A1
S31510008C202422BA18127892B253439AB2BB1D1B88EB
S31510008C30D3189BB218B20D23FB181B785BB29BB2EC
S31510008C402422BA18127892B253439AB23B1D1B884B
S31510008C50D3189BB219B22423FB181B781AB22423FB
S31510008C60FB181B781CB22023FB181B8800932300CB
S31510008C701C4CA0470D23FB181B785BB2DBB20133EB
S31510008C80DAB20D23FB181A700E23FB180E22BA182F
S31510008C90127852081A700D23FB181B785BB2072B3B
S31510008CA000DC3DE70F23FB181B785BB2DBB2013308
S31510008CB0DAB20F23FB181A700F23FB181B785BB25E
S31510008CC0042B00DC18E700E0C046BD4604B0B0BD7A
S31510008CD021110110481201104A12011018F8001043
S31510008CE01D8600107984001080B582B000AF020096
S31510008CF0FB1D1A70BB1D0A1C1A70064BFA1D127842
S31510008D001A70054BBA1D12781A70C046BD4602B0CD
S31510008D1080BDC046221101102311011080B582B00A
S31510008D2000AF0200FB1D1A70034BFA1D12781A7061
S31510008D30C046BD4602B080BDEC0B011080B582B0B6
S31510008D4000AF78607B681B781800064B98477B68E5
S31510008D5001337B607B681B78002BF3D1C046BD4680
S31510008D6002B080BD9D90001090B587B000AF040092
S31510008D700800BA6019000E23FB18221C1A800C2357
S31510008D80FB18021C1A80BB1D0A1C1A80BB1D002270
S31510008D909B5E0733002B00DA0733DB101A00102313
S31510008DA0FB181A801723FB1800221A701423FB18BD
S31510008DB000221A806DE01223FB1800221A804BE065
S31510008DC01223FB181B881A000723134007D01723FA
S31510008DD0FA181723FB181B78DB18137019E01423E5
S31510008DE0FB1800229B5E1022BA180021525E5A43CD
S31510008DF01223FB1800215B5E002B00DA0733DB1011
S31510008E001BB2D3181A00BB689A181723FB181278CE
S31510008E101A701723FB181B785BB2002B12DA0E237D
S31510008E20FB181A881223FB181B88D3189BB218B28A
S31510008E302C23FB181A880C23FB1800215B5E1900E3
S31510008E401B4B98471223FB1800229B5E9BB20133E3
S31510008E509AB21223FB181A801223FA18BB1D00218E
S31510008E60525E00215B5E9A42AADB1423FB18002295
S31510008E709B5E9BB201339AB21423FB181A800C2303
S31510008E80FB1800229B5E9BB201339AB20C23FB188F
S31510008E901A801423FB182822B91800229A5E002380
S31510008EA0CB5E9A4287DBC046BD4607B090BDC04632
S31510008EB01D860010B0B586B000AF05000C0010007E
S31510008EC01900BB1D2A1C1A803B1D221C1A80BB1CB4
S31510008ED0021C1A803B000A1C1A80BB1D00229B5ED6
S31510008EE0664A1278934200DBC4E03B1D00229B5E6B
S31510008EF0634A1278934200DBBCE0BB1D00229A5EE7
S31510008F00BB1C00215B5ED318013B5C4A127893426E
S31510008F1008DB5A4B1B789AB2BB1D1B88D31A9AB220
S31510008F20BB1C1A803B1D00229A5E3B0000215B5E33
S31510008F30D318013B524A1278934208DB504B1B78E8
S31510008F409AB23B1D1B88D31A9AB23B001A80BB1DDE
S31510008F501B88D8B23B1D1B88D9B2BB1D1B88DAB241
S31510008F60BB1C1B88DBB2D318DBB2013BDCB23B1D4A
S31510008F701B88DAB23B001B88DBB2D318DBB2013B8D
S31510008F80DBB222003F4CA0472823FB181B881B0A84
S31510008F909AB21523FB181A701423FB182822BA1834
S31510008FA012881A702823FB181B881B0A9BB2DAB288
S31510008FB00C23FB181A702823FB181B88DAB20C2313
S31510008FC0FB185A703B0000229B5E5B00BA1C002106
S31510008FD0525E534318002C4B984703003B611623EF
S31510008FE0FB1800221A8019E01623FB181B883A6911
S31510008FF0D3181522BA1812781A701623FB181B8864
S3151000900001333A69D3181422BA1812781A70162333
S31510009010FB181622BA18128802321A801623FB1869
S315100090201A883B0000215B5E5B00B91C0020095EBC
S315100090304B439A42D8DB01210720144B9847002155
S315100090400C20124B9847124B18683B001B88BA1C11
S31510009050128853439BB2DB189AB23B6919000D4B29
S31510009060984701210C20094B98473B6918000A4B79
S31510009070984700E0C046BD4606B0B0BD4812011084
S315100090804A120110958300104DEF00105583001001
S3151000909040110110899F001061EF0010B0B584B027
S315100090A002AF0200FB1D1A70FB1D1B780A2B0DD197
S315100090B01E4B00221A701E4B1B78DB00DAB21D4BBA
S315100090C01B78D318DAB21B4B1A702AE0FB1D1B78DB
S315100090D00D2B03D1154B00221A7022E0134B1B786F
S315100090E018B2144B1B781CB2134B1D88134B1B88DC
S315100090F00F4A1278F91D0978019200932B000A0085
S3151000910021000F4CA0470A4B1B781A1C131CDB18A6
S315100091109B18DB18DAB2054B1B78D318DAB2034B5F
S315100091201A70C046BD4602B0B0BDC046221101102D
S31510009130EC0B011023110110EE0B0110241101107C
S31510009140698A001080B582B000AF786000210C20CB
S31510009150144B984701210D20124B9847FA235B00B8
S315100091601800114B984700210D200E4B9847FA23F3
S315100091705B0018000C4B984701210D20094B9847AE
S31510009180FA235B001800084B98477B68002B03D026
S315100091907B681800054B9847C0461800BD4602B0BC
S315100091A080BDC0465583001049D6001001890010B5
S315100091B080B582B000AF0200FB1D1A70274B180055
S315100091C0274B9847FB1D1B78002B0AD1254B1800FF
S315100091D0254B9847254B02221A70254B01221A70EF
S315100091E02DE0FB1D1B78012B10D1224B80221A700B
S315100091F0214B80221A70214B18001B4B98471B4B92
S3151000920002221A701A4B03221A7018E0FB1D1B78E3
S31510009210042B10D1174BA0221A70174B50221A701C
S31510009220174B1800104B9847104B18221A70104BFA
S3151000923000221A7003E0134B18000B4B9847124B81
S315100092401800094B9847114BFA1D12781A70002016
S315100092500F4B9847C046BD4602B080BD80FD00103A
S3151000926045910010BCFD0010018900104912011033
S315100092704B1201104A12011048120110DCFD0010A9
S31510009280ECFD0010CCFD0010FCFD00103C1101108F
S31510009290F586001080B582B000AF78600A00BB1C5E
S315100092A01A807B689B889AB2BB1C1B8813439AB2A0
S315100092B07B689A80C046BD4602B080BD80B582B03C
S315100092C000AF78600A00BB1C1A807B689B889BB233
S315100092D01BB2BA1C0021525ED24312B213401BB20B
S315100092E09AB27B689A80C046BD4602B080BD80B5F2
S315100092F082B000AF78600A00BB1C1A807B681B8A9C
S315100093009AB2BB1C1B8813439AB27B681A82C0465A
S31510009310BD4602B080BD80B582B000AF78600A004D
S31510009320BB1C1A807B681B8A9BB21BB2BA1C00211D
S31510009330525ED24312B213401BB29AB27B681A82A3
S31510009340C046BD4602B080BD80B582B000AF786021
S3151000935039607B685A6C3B681A437B685A64C0460E
S31510009360BD4602B080BD80B582B000AF786039606E
S315100093707B685B6C3A68D2431A407B685A64C04675
S31510009380BD4602B080BD80B582B000AF786039604E
S315100093907B689A6C3B681A437B689A64C046BD46E4
S315100093A002B080BD80B582B000AF786039607B684E
S315100093B09B6C3A68D2431A407B689A64C046BD4695
S315100093C002B080BD80B582B000AF786039607B682E
S315100093D0DA6C3B681A437B68DA64C046BD4602B055
S315100093E080BD80B582B000AF786039607B68DB6C79
S315100093F03A68D2431A407B68DA64C046BD4602B06A
S3151000940080BD80B582B000AF786039607A68D023AD
S315100094105B00D2583B681A4311007A68D0235B0070
S31510009420D150C046BD4602B080BD80B582B000AFF7
S31510009430786039607A68D0235B00D3583A68D24393
S315100094401A4011007A68D0235B00D150C046BD4641
S3151000945002B080BD80B582B000AF786039607A689E
S31510009460D2235B00D2583B681A4311007A68D22384
S315100094705B00D150C046BD4602B080BD80B582B0FB
S3151000948000AF786039607A68D2235B00D3583A68A7
S31510009490D2431A4011007A68D2235B00D150C046DD
S315100094A0BD4602B080BD80B582B000AF786039602D
S315100094B07A68D4235B00D2583B681A4311007A6845
S315100094C0D4235B00D150C046BD4602B080BD80B5E6
S315100094D082B000AF786039607A68D4235B00D358C5
S315100094E03A68D2431A4011007A68D4235B00D150EF
S315100094F0C046BD4602B080BD80B582B000AF786070
S3151000950039607A68D6235B00D2583B681A4311003B
S315100095107A68D6235B00D150C046BD4602B080BDE6
S3151000952080B582B000AF786039607A68D6235B0068
S31510009530D3583A68D2431A4011007A68D6235B0092
S31510009540D150C046BD4602B080BD80B582B000AFD6
S31510009550786039607A68D8235B00D2583B681A4322
S3151000956011007A68D8235B00D150C046BD4602B0C0
S3151000957080BD80B582B000AF786039607A68D82334
S315100095805B00D3583A68D2431A4011007A68D82340
S315100095905B00D150C046BD4602B080BD80B582B0DA
S315100095A000AF786039607A68DA235B00D2583B687E
S315100095B01A4311007A68DA235B00D150C046BD46C3
S315100095C002B080BD80B582B000AF786039607A682D
S315100095D0DA235B00D3583A68D2431A4011007A68EE
S315100095E0DA235B00D150C046BD4602B080BD0000F4
S315100095F080B584B000AF39601100FB1D021C1A70D3
S31510009600BB1D0A1C1A703B681B0CFB60FB1D1B78EC
S31510009610002B47D1BB1D1B78012B16D0022B27D050
S31510009620002B38D1FB68002B07D13B689BB21F4A31
S31510009630190010001E4B984734E0FB689BB21D4A78
S31510009640190010001A4B98472CE0FB68002B07D125
S315100096503B689BB2154A19001000154B984721E03C
S31510009660FB689BB2134A19001000114B984719E07A
S31510009670FB68002B07D13B689BB20C4A19001000FF
S315100096800D4B98470EE0FB689BB20A4A1900100072
S31510009690094B984706E0094B512219000020084B48
S315100096A09847FFE7C046BD4604B080BD00000140A4
S315100096B01793001000100140EF92001028FE0010C2
S315100096C0E1A5001080B584B000AF39601100FB1D14
S315100096D0021C1A70BB1D0A1C1A703B681B0CFB601F
S315100096E0FB1D1B78002B28D1BB1D1B78002B12D01D
S315100096F0FB68002B07D13B689BB2124A1900100079
S31510009700114B984719E0FB689BB2104A19001000DC
S315100097100D4B984711E0FB68002B07D13B689BB2B5
S31510009720084A190010000A4B984706E0FB689BB2DE
S31510009730064A19001000064B9847C046BD4604B0AD
S3151000974080BDC046000001409592001000100140F7
S31510009750BD92001080B584B000AF786039607B6828
S315100097605A090D23FB181A707B68DAB20C23FB1802
S315100097701F210A401A700C23FB181B789B00DAB2C3
S315100097800B23FB181C210A401A700C23FB181B789C
S31510009790DB00DAB20A23FB1818210A401A703B685C
S315100097A01A0A0F23FB181A700E23FB183A681A7040
S315100097B03B68013307D10F23FB1800221A700E23C2
S315100097C0FB1800221A700D23FB181B78002B00D0F3
S315100097D02EE10C23FB181B78072B60D80B23FB18E4
S315100097E01B7807229A4013001A00934B1100180099
S315100097F0924B98470E23FB181A780B23FB181B78ED
S315100098009A4013001A008C4B110018008C4B984785
S315100098100E23FB181B78012B00D009E10C23FB1833
S315100098201B78032B1AD80A23FB181B783F229A4061
S3151000983013001A00804B11001800824B98470F2313
S31510009840FB181A780A23FB181B789A4013001A0083
S31510009850794B110018007C4B9847E9E00C23FB1854
S315100098601B78072B00D9E3E00A23FB181B783F224D
S315100098709A4013001A00704B11001800734B98474A
S315100098800F23FB181A780A23FB181B789A4013002B
S315100098901A00694B110018006D4B9847C8E00C234D
S315100098A0FB181B780F2B60D80B23FB181B7807228D
S315100098B09A4013001A00604B11001800654B984728
S315100098C00E23FB181A780B23FB181B789A401300EB
S315100098D01A00594B110018005F4B98470E23FB18BE
S315100098E01B78012B00D0A3E00C23FB181B780B2B45
S315100098F01AD80A23FB181B783F229A4013001A0025
S315100099004D4B11001800554B98470F23FB181A782A
S315100099100A23FB181B789A4013001A00464B1100B5
S3151000992018004F4B984783E00C23FB181B780F2B1E
S3151000993000D97DE00A23FB181B783F229A401300BA
S315100099401A003D4B11001800464B98470F23FB1881
S315100099501A780A23FB181B789A4013001A00364B04
S3151000996011001800404B984762E00C23FB181B7837
S31510009970172B5DD80B23FB181B7807229A40130070
S315100099801A002D4B11001800384B98470E23FB1860
S315100099901A780B23FB181B789A4013001A00264BD3
S315100099A011001800324B98470E23FB181B78012B19
S315100099B03ED10C23FB181B78132B1AD80A23FB183D
S315100099C01B783F229A4013001A001B4B11001800F7
S315100099D0284B98470F23FB181A780A23FB181B7875
S315100099E09A4013001A00144B11001800224B984786
S315100099F01EE00C23FB181B78172B19D80A23FB180B
S31510009A001B783F229A4013001A000B4B11001800C6
S31510009A101A4B98470F23FB181A780A23FB181B7842
S31510009A209A4013001A00044B11001800144B984763
S31510009A30C046BD4604B080BD00B00040679300101C
S31510009A40499300102B940010039400107D9400107D
S31510009A5055940010A593001087930010CF94001012
S31510009A60A794001021950010F9940010E3930010AC
S31510009A70C5930010739500104B950010C5950010F6
S31510009A809D95001080B582B000AF786039603A6855
S31510009A907B6811001800034B9847C046BD4602B0BC
S31510009AA080BDC0465597001080B582B000AF020049
S31510009AB0FB1D1A70BB1D0A1C1A70FB1D1B785B0957
S31510009AC0D8B2FB1D1B781F22134001229A401100A9
S31510009AD0BB1D1B781A00034B9847C046BD4602B003
S31510009AE080BDC046F195001080B582B000AF02006F
S31510009AF0FB1D1A70BB1D0A1C1A70FB1D1B785B0917
S31510009B00D8B2FB1D1B781F22134001229A40110068
S31510009B10BB1D1B781A00034B9847C046BD4602B0C2
S31510009B2080BDC046C596001080B500AF024B984761
S31510009B30C046BD4680BDC04601AA001080B500AF24
S31510009B40054B984702000549054B1800054B9847E9
S31510009B50C046BD4680BDC046F5A9001000D00040E5
S31510009B608412011055A2001080B500AF064B1900E3
S31510009B700920064B9847064B19000820034B9847B7
S31510009B80C046BD4680BDC04601090900859A001031
S31510009B900108080080B500AFC046BD4680BD000074
S31510009BA080B500AF064B9847064A074B11001800C0
S31510009BB0064B9847064B9847C046BD4680BDC046E3
S31510009BC0959B00100030004064120110419E001059
S31510009BD0699B001080B500AFC046BD4680BD000031
S31510009BE080B500AF02210B201E4B984700210B2099
S31510009BF01D4B98471D4B19000B201D4B98470221F2
S31510009C000A20184B984700210A20174B9847194BE2
S31510009C1019000A20164B984702210C20114B984721
S31510009C2000210C20104B984702210D200D4B984710
S31510009C3001210D200C4B984702210720094B98470C
S31510009C4002210320074B984701210320064B984712
S31510009C5001235B4219000820054B9847C046BD46B4
S31510009C6080BDC046A99A0010E99A001002000B00A8
S31510009C70859A001002000A0080B500AFC046BD46A6
S31510009C8080BD000080B500AF064B9847064A074BCB
S31510009C9011001800064B9847064B9847C046BD461C
S31510009CA080BDC046799C0010006000405012011023
S31510009CB0DD9F0010E19B001080B582B000AF044B11
S31510009CC07B60044A7B681A60C046BD4602B080BD00
S31510009CD0AC00001011A8001080B500AF074B9847D4
S31510009CE0074B9847074B9847074B9847074B98479A
S31510009CF0074B9847C046BD4680BDC046299B0010FD
S31510009D00B99C00103D9B0010859C0010D59B00103F
S31510009D10A19B001080B584B000AF7860EFF310837C
S31510009D20FB60FA687B681A6072B6BFF35F8FC04635
S31510009D30BD4604B080BD80B584B000AF7860BFF377
S31510009D405F8F7B681B68FB60FB6883F31088C046D7
S31510009D50BD4604B080BD000080B58AB000AFF86083
S31510009D60B960BB1D1A80FB68143B7B627B6A9A8BB9
S31510009D701423FB181A80BB1D1A881423FB185A606B
S31510009D801423FB180F4A5A801423FB18BA689A60DA
S31510009D907B6A1422BA18110018000B4B984703005F
S31510009DA03B62BB1D1A887B6A5B689A4205DDBB1D48
S31510009DB01A887B6A5B68D31A00E03B6A1800BD46B6
S31510009DC00AB080BD0180FFFFE5AE001080B58AB0F5
S31510009DD000AFF860B960BB1D1A80FB68143B7B624C
S31510009DE07B6A9A8B1423FB181A80BB1D1A881423BE
S31510009DF0FB185A601423FB180F4A5A801423FB18B9
S31510009E00BA689A607B6A1422BA18110018000B4BB4
S31510009E10984703003B62BB1D1A887B6A5B689A42AF
S31510009E2005DDBB1D1A887B6A5B68D31A00E03B6AA6
S31510009E301800BD460AB080BD0080FFFFE5AE0010D9
S31510009E4080B584B000AF786039607B685A1E934144
S31510009E50DBB20E49712218000D4B98477B683A68A1
S31510009E60110018000B4B98470300FB60FB68002B92
S31510009E7001D0FB6806E07B68074A9A617B68074A4F
S31510009E805A6100231800BD4604B080BD60FE001064
S31510009E90E1A50010B9B00010599D0010CD9D00101D
S31510009EA080B582B000AF78607B681800034B984786
S31510009EB003001800BD4602B080BDC04665AD001057
S31510009EC080B588B000AFF86008007A6019000B23DF
S31510009ED0FB18021C1A700A23FB180A1C1A70FB685E
S31510009EE09A8B1023FB181A801023FB1801225A6034
S31510009EF01023FB1800225A801023FB180B22BA18C5
S31510009F009A60FB681022BA1811001800144B984773
S31510009F100300FB61FB69002B01D0FB691CE00A23DF
S31510009F20FB181A781023FB185A601023FB180D4AD9
S31510009F305A801023FB187A689A60FB681022BA18A8
S31510009F4011001800064B98470300FB61FB69002BB4
S31510009F5001D0FB6900E000231800BD4608B080BDA3
S31510009F60E5AE00100180FFFF80B582B000AF7860CB
S31510009F7039607B6814331A003B681A600023180096
S31510009F80BD4602B080BD000080B584B000AFF86059
S31510009F90B960BB1D1A80FB68002B04D0BB68002B70
S31510009FA001D0012300E000231A1C01231340DBB269
S31510009FB008493E221800084B9847FB681B68BA1DD3
S31510009FC01288B968F868984703001800BD4604B0AF
S31510009FD080BDC0467CFE0010E1A5001080B584B09F
S31510009FE000AF786039600023FB607B68002B04D0DB
S31510009FF03B68002B01D0012300E000231A1C01232B
S3151000A0001340DBB2114942221800114B98477B6866
S3151000A0103A681A607B683A68110018000D4B984729
S3151000A0200300FB60FB68002B01DAFB6809E07B6824
S3151000A030094A1A827B68094ADA607B68084A9A607C
S3151000A04000231800BD4604B080BDC04690FE001027
S3151000A050E1A500109DB400100080FFFF9DA0001028
S3151000A06001A1001080B582B000AF78607B685A1EDF
S3151000A0709341DBB206495B221800064B98477B6872
S3151000A0801800054B9847C046BD4602B080BDC04675
S3151000A09090FE0010E1A50010A5B5001080B588B09F
S3151000A0A000AFF860B960BB1D1A80FB685A1E934159
S3151000A0B0DBB21049912218000F4B9847FB68083BFA
S3151000A0C0FB611023FB18BA685A601023FB18002294
S3151000A0D01A60BB1D1A881023FB189A601023FA18F1
S3151000A0E0FB6911001800054B984703001800BD4680
S3151000A0F008B080BD90FE0010E1A5001065A100100B
S3151000A10080B588B000AFF860B960BB1D1A80FB68D7
S3151000A1105A1E9341DBB21049AD2218000F4B9847D7
S3151000A120FB68083BFB611023FB1800225A601023C2
S3151000A130FB18BA681A60BB1D1A881023FB189A60A0
S3151000A1401023FA18FB6911001800054B98470300F5
S3151000A1501800BD4608B080BD90FE0010E1A50010A5
S3151000A16065A1001080B586B000AF786039607B6855
S3151000A170002B04D03B68002B01D0012300E0002304
S3151000A1801A1C01231340DBB20F49BD2218000F4BD6
S3151000A19098473B681A680C23FB181A603B685A6884
S3151000A1A00C23FB185A603B689A680C23FB189A60BC
S3151000A1B07B680C22BA1811001800054B984703004B
S3151000A1C01800BD4606B080BD90FE0010E1A5001037
S3151000A1D065B6001080B582B000AF786039607B68D4
S3151000A1E0002B04D03B68002B01D0012300E0002394
S3151000A1F01A1C01231340DBB20749C8221800074B6B
S3151000A20098477B6808331A003B681A6000231800C9
S3151000A210BD4602B080BDC04690FE0010E1A50010FC
S3151000A22080B582B000AF78607B681B681800BD46A9
S3151000A23002B080BD80B582B000AF78607B68002B1D
S3151000A24002D07B681B6800E000231800BD4602B0F0
S3151000A25080BD000080B584B000AFF860B9607A6048
S3151000A260FB68002B04D0BB68002B01D0012300E053
S3151000A27000231A1C01231340DBB20B494522180098
S3151000A2800A4B9847FB68BA6811001800084B9847A4
S3151000A290FB6800221A61FB68064A1A600023180040
S3151000A2A0BD4604B080BDC046ACFE0010E1A500104E
S3151000A2B051A800101DA5001080B582B000AF7860BF
S3151000A2C07B685A1E9341DBB20B495D2218000B4B7B
S3151000A2D098477B6818000A4B9847031E02D0112333
S3151000A2E05B4204E07B681800064B98470023180071
S3151000A2F0BD4602B080BDC046ACFE0010E1A5001000
S3151000A30071A90010D5A8001080B584B000AF786090
S3151000A31039607B68002B04D03B68002B01D00123E9
S3151000A32000E000231A1C01231340DBB22E498422BD
S3151000A33018002E4B98477B681B7EDBB20122134315
S3151000A340DAB27B681A767B6814333A681100180003
S3151000A350274B9847031E10D07B681B7EDBB2012269
S3151000A3609343DAB27B681A761F4B892219000020B4
S3151000A3701E4B984712235B4232E07B681A693B6892
S3151000A3805A607B68143318007B681A693B68190099
S3151000A390184B98477B681B7EDBB201229343DAB2D7
S3151000A3A07B681A767B681B7EDBB21A000223134089
S3151000A3B015D00C23FB1818000F4B98477B681B7E93
S3151000A3C0DBB202229343DAB27B681A767B681800F6
S3151000A3D00A4B98470C23FB181800094B9847002383
S3151000A3E01800BD4604B080BDACFE0010E1A50010FB
S3151000A3F00DA6001059A40010159D0010C1A900103B
S3151000A400379D001080B582B000AF786039607B68E8
S3151000A410002B04D03B68002B01D0012300E0002361
S3151000A4201A1C01231340DBB20849B9221800084B45
S3151000A43098477B681800074B984702003B681A60DC
S3151000A44000231800BD4602B080BDC046ACFE001009
S3151000A450E1A5001021A9001080B588B000AFF86002
S3151000A460B9607A600023BB61FB681800274B9847D8
S3151000A47003003B613B69002B06D1BA68FB681100EB
S3151000A4801800234B98473DE03B69FB6124E0FB69CC
S3151000A4905A687B689A4208D8FB699A68FB695968BA
S3151000A4A07B68CB1AD3187B6109E0FB699A68FB6954
S3151000A4B05B68D2187B685B42D31801337B61BB683B
S3151000A4C09A687B699A420BD9FB69BB61FB691800D4
S3151000A4D0104B98470300FB61FB69002BD7D100E0B6
S3151000A4E0C046FA693B699A4206D1BA68FB68110000
S3151000A4F01800074B984705E0BA68BB6911001800A9
S3151000A500054B9847BD4608B080BDC04621A2001035
S3151000A51041A6001035A2001099A6001080B586B08D
S3151000A52000AF78607B683B613B6914331800294B98
S3151000A530984703007B613B691B695A1C3B691A618A
S3151000A5403B691B69FB603B691B7EDBB21A0001236A
S3151000A550134006D13B691B7EDBB21A00022313405F
S3151000A56029D03B691B7EDBB202221343DAB23B6968
S3151000A5701A762BE07B69BB603B6914331800164BC7
S3151000A5809847BB681B7C012B09D1BB68FA685A60D7
S3151000A5903B691433FA68B9681800104B98473B6941
S3151000A5A0143318000B4B984703007B61BB68DB68BC
S3151000A5B0BA68100098477B69002B07D07B695B68E7
S3151000A5C0FA68D21A7B699B689A42D3D2BD4606B006
S3151000A5D080BDC04621A20010B9A6001059A40010D3
S3151000A5E080B584B000AFB9607A600F23FB18021CE7
S3151000A5F01A700F23FB181B7801225340DBB2002B75
S3151000A60000D000BEC046BD4604B080BD80B584B043
S3151000A61000AF786039607B681B68FB6008E0FA68F9
S3151000A6203B689A4201D1012306E0FB681B68FB6078
S3151000A630FB68002BF3D100231800BD4604B080BD83
S3151000A64080B582B000AF786039603A687B681100D7
S3151000A65018000E4B984703005A1E9341DBB2012295
S3151000A6605340DBB21A1C01231340DBB208494322C4
S3151000A6701800084B98477B681A683B681A607B6815
S3151000A6803A681A60C046BD4602B080BD0DA60010DD
S3151000A690C4FE0010E1A5001080B582B000AF78604E
S3151000A6A039607B681A683B681A607B683A681A607A
S3151000A6B0C046BD4602B080BD80B584B000AF78609C
S3151000A6C07B681B68002B09D07B681B68FB607B6866
S3151000A6D01B681A687B681A60FB6800E00023180084
S3151000A6E0BD4604B080BD000080B584B000AF786070
S3151000A6F00A4B1B68002B02D1084B094A1A60074BFC
S3151000A7001B68FB60054B1A687B68D218034B1A60EE
S3151000A710FB681800BD4604B080BDC0462811011064
S3151000A720E897011080B582B000AF0200FB1D1A70C9
S3151000A730064BFA1D127811001F220A400121914082
S3151000A7400A001A60C046BD4602B080BD00E100E0B6
S3151000A75080B582B000AF0200FB1D1A70084AFB1DBF
S3151000A7601B7819001F230B40012199400B0019007B
S3151000A77080235B00D150C046BD4602B080BDC046A6
S3151000A78000E100E080B582B000AF78607B681B689E
S3151000A79001221A437B681A60C046BD4602B080BDCE
S3151000A7A080B582B000AF78607B681B6810221A43B0
S3151000A7B07B681A60C046BD4602B080BD80B584B0C5
S3151000A7C000AF78607B681B68FB60FB689B0F0122FB
S3151000A7D01340FB60FB685A1E9341DBB21800BD465E
S3151000A7E004B080BD80B582B000AF786039607B68F8
S3151000A7F03A685A60C046BD4602B080BD80B582B088
S3151000A80000AF78607B68DB681800BD4602B080BD7B
S3151000A81080B582B000AF0C4B1B68DB687B607B6831
S3151000A82018000A4B9847084B1B681B68002B06D06C
S3151000A830054B1B681A68044B1B6818009047C046E6
S3151000A840BD4602B080BDC0462C110110A1A7001054
S3151000A85080B582B000AF786039607B68002B04D079
S3151000A8603B68002B01D0012300E000231A1C0123B2
S3151000A8701340DBB2114947221800114B98473B6829
S3151000A8801800104B9847031E02D011235B4210E0AC
S3151000A890FA23DA013B68110018000B4B98477B68C6
S3151000A8A03A68DA60094B7A681A601B20084B984799
S3151000A8B000231800BD4602B080BDC046E4FE00105D
S3151000A8C0E1A50010BDA70010E5A700102C1101107E
S3151000A8D025A7001080B582B000AF78607B68002B8A
S3151000A8E005D07B68DB68002B01D0012300E0002334
S3151000A8F01A1C01231340DBB2064964221800064BCA
S3151000A90098477B68DB681800044B9847C046BD46DD
S3151000A91002B080BDE4FE0010E1A5001085A700106E
S3151000A92080B582B000AF78607B68002B05D07B685D
S3151000A930DB68002B01D0012300E000231A1C012341
S3151000A9401340DBB2074981221800074B98477B68F2
S3151000A950DB681800054B984703001800BD4602B087
S3151000A96080BDC046E4FE0010E1A50010FDA7001052
S3151000A97080B582B000AF78607B68002B05D07B680D
S3151000A980DB68002B01D0012300E000231A1C0123F1
S3151000A9901340DBB2074988221800074B98477B689B
S3151000A9A0DB681800054B984703001800BD4602B037
S3151000A9B080BDC046E4FE0010E1A50010BDA7001042
S3151000A9C080B582B000AF78607B685A1E9341DBB2C7
S3151000A9D005498F221800054B98471B20044B9847B2
S3151000A9E0C046BD4602B080BDE4FE0010E1A50010D1
S3151000A9F051A7001080B500AF00231800BD4680BDDA
S3151000AA0080B500AF024B9847C046BD4680BDC046D4
S3151000AA108DB1001080B582B000AF78600A00BB1C03
S3151000AA201A807B68BA1C12881A80C046BD4602B0CE
S3151000AA3080BD80B582B000AF78600A00FB1C1A702A
S3151000AA407B68FA1C342112785A54C046BD4602B0AF
S3151000AA5080BD80B584B000AF78600A00FB1C1A7008
S3151000AA600F23FB187A68127C1A700F23FB180F221B
S3151000AA70BA18127803218A431A70FB1C1B7803221A
S3151000AA801340D9B20F23FB180F22BA1812780A43B3
S3151000AA901A707B680F22BA1812781A74C046BD460F
S3151000AAA004B080BD80B582B000AF78607B681B7D36
S3151000AAB0DBB201221343DAB27B681A75C046BD4673
S3151000AAC002B080BD80B584B000AF78600F23FB184C
S3151000AAD07A68127D1A700F23FB180F22BA18127893
S3151000AAE001210A401A700F23FB181B785A1E934136
S3151000AAF0DBB21800BD4604B080BD80B584B000AF8F
S3151000AB0078600A00BB1C1A800E23FB187A68128B19
S3151000AB101A800E23FB1800221A800E23FB180E2211
S3151000AB20B918BA1C098812880A431A807B680E2243
S3151000AB30BA1812881A83C046BD4604B080BD80B5C7
S3151000AB4082B000AF78607B681B7FDBB201221343B3
S3151000AB50DAB27B681A77C046BD4602B080BD80B5B2
S3151000AB6082B000AF78607B6820229B5CDBB201224A
S3151000AB701343D9B27B6820229954C046BD4602B011
S3151000AB8080BD80B582B000AF78607B6820229B5C68
S3151000AB90DBB201229343D9B27B6820229954C04676
S3151000ABA0BD4602B080BD80B582B000AF78607B68CC
S3151000ABB01B79DBB21800BD4602B080BD80B582B0ED
S3151000ABC000AF78607B681B7ADBB21A000123134052
S3151000ABD05A1E9341DBB21800BD4602B080BD80B547
S3151000ABE082B000AF78607B681B7ADBB21B0901224A
S3151000ABF013405A1E9341DBB21800BD4602B080BD09
S3151000AC0080B582B000AF78607B681B7BDBB21A0020
S3151000AC10012313405A1E9341DBB21800BD4602B001
S3151000AC2080BD80B582B000AF78607B6828229B5CBF
S3151000AC30DBB21A00012313405A1E9341DBB21800EF
S3151000AC40BD4602B080BD000080B582B000AF78600E
S3151000AC507B68044A944663449B0ADBB21800BD46DF
S3151000AC6002B080BD00D0FFBF90B585B000AF786050
S3151000AC707B685A1E9341DBB2184983221800184B81
S3151000AC8098470E23FC187B681800164B984703004C
S3151000AC9023700F23FB1800221A7015E00F23FB18E0
S3151000ACA01A78114BD200D35C0E22BA1812789A4237
S3151000ACB003D10F23FB181B780CE00F23FB181A780F
S3151000ACC00F23FB1801321A700F23FB181B78002B69
S3151000ACD0E4D000231800BD4605B090BD1CFF00103F
S3151000ACE0E1A5001049AC001014FF001080B584B027
S3151000ACF000AF78600B4BFB6008E0FB68013BFB6024
S3151000AD00FB68002B02DC08235B4206E07B68180018
S3151000AD10054B9847031EF0D100231800BD4604B01A
S3151000AD2080BDC046FFFF000023AC001080B582B086
S3151000AD3000AF78607B681800024B9847C046BD4646
S3151000AD4002B080BD5FAB001080B582B000AF7860F6
S3151000AD507B681800024B9847C046BD4602B080BDBE
S3151000AD6083AB001080B582B000AF78607B68002B93
S3151000AD7005D07B681B69002B01D0012300E000235E
S3151000AD801A1C01231340DBB20749C5221800074BD2
S3151000AD9098477B681B691800054B984700231800D5
S3151000ADA0BD4602B080BDC0461CFF0010E1A50010D4
S3151000ADB0A5AA001080B582B000AF786039607B68B4
S3151000ADC0002B04D03B68002B01D0012300E00023A8
S3151000ADD01A1C01231340DBB21049F2221800104B43
S3151000ADE098477B681B88DB189BB2FF2213409AB2E8
S3151000ADF07B685B889BB201210B409BB213439BB2CD
S3151000AE008022520013439AB23B6811001800054B7A
S3151000AE10984700231800BD4602B080BD1CFF0010E5
S3151000AE20E1A5001015AA001090B585B000AF7860A6
S3151000AE3039600F23FC183B681800224B9847030013
S3151000AE4023707B68002B04D03B68002B01D00123B4
S3151000AE5000E000231A1C01231340D8B20A23FF3343
S3151000AE601A00194B1900194B98473B681800184BD4
S3151000AE709847031E02D011235B421EE00F23FB18D6
S3151000AE801B78144ADB00D31801331A783B6811007B
S3151000AE901800114B98470F23FB181B780D4ADB003F
S3151000AEA0D31802331A883B68110018000B4B9847C9
S3151000AEB03B6818000A4B984700231800BD4605B09A
S3151000AEC090BDC04669AC00101CFF0010E1A5001033
S3151000AED0C5AA001014FF001053AA0010FBAA0010F8
S3151000AEE03FAB001090B587B000AF7860396016237D
S3151000AEF0FB1800221A807B681B693B617B68002B5C
S3151000AF0008D07B681B69002B04D03B68002B01D04E
S3151000AF10012300E000231A1C01231340D8B2882312
S3151000AF209A00584B1900584B98477B685B889BB220
S3151000AF301A0080235B00134002D006235B429CE07C
S3151000AF403B685B889BB28022520013439AB23B68DF
S3151000AF505A807B683A6813CA13C33B6918004B4B77
S3151000AF6098473B6901211800494B98473B691800DF
S3151000AF70484B98473A693B6811001800464B98476A
S3151000AF800300FB60FB68002B09D07B685B889BB2D3
S3151000AF90424A13409AB27B685A80FB686DE03B6860
S3151000AFA05B889BB21A000123134023D0C0463B692D
S3151000AFB018003B4B984703001A0001235340DBB29D
S3151000AFC0002BF4D13B689A681623FB181B881621B0
S3151000AFD07918581C0880D4183B691800314B9847CB
S3151000AFE0030023701623FB181A883B685B689A4285
S3151000AFF0DCDB2FE0C0463B6918002B4B984703005B
S3151000B0001A0001235340DBB2002BF4D13B689A6837
S3151000B0101623FB181B8816217918581C0880D3187C
S3151000B0201B789AB23B6911001800204B98471623DB
S3151000B030FB181A883B685B689A42DBDBC0463B69A3
S3151000B04018001B4B984703001A0001235340DBB22C
S3151000B050002BF4D13B685B889BB21BB2002B03DA42
S3151000B0603B691800134B98477B685B889BB20B4A69
S3151000B07013409AB27B685A80FB681800BD4607B029
S3151000B08090BDC0461CFF0010E1A50010EDAC0010ED
S3151000B09033AA00102DAD0010B5AD0010FFFEFFFF56
S3151000B0A001AC0010A7AB0010BDAB001015AA001024
S3151000B0B0DFAB001049AD001080B584B000AF7860EA
S3151000B0C039607B68002B04D03B68002B01D001232C
S3151000B0D000E000231A1C01231340DBB20C4A0D4971
S3151000B0E018000D4B98477B683A68110018000B4BF7
S3151000B0F098470300FB60FB68002B01D0FB6803E058
S3151000B1007B683A681A6100231800BD4604B080BDFA
S3151000B110990200001CFF0010E1A5001029AE0010D6
S3151000B12080B582B000AF78607B689B6904221A43B1
S3151000B1307B689A61C046BD4602B080BD80B582B0BC
S3151000B14000AF78607B689B6908221A437B689A6116
S3151000B150C046BD4602B080BD80B584B000AF7860F1
S3151000B16039607B689B69FB60FB6803229343FB6035
S3151000B1703B6803221340FA681343FB607B68FA6846
S3151000B1809A61C046BD4604B080BD000080B500AFD0
S3151000B1900A4B18000A4B9847084B1800094B98475A
S3151000B1A0C046064B03211800074B9847034B002156
S3151000B1B01800054B9847C046BD4680BD00B00040FC
S3151000B1C021B100103DB1001059B1001080B582B008
S3151000B1D000AF78600A00FB1C1A707B68FA1C1278A4
S3151000B1E01A70C046BD4602B080BD80B582B000AFB1
S3151000B1F078600A00FB1C1A707B68FA1C12781A74A5
S3151000B200C046BD4602B080BD80B582B000AF786042
S3151000B2100A00BB1C1A807B68BA1C12889A82C04628
S3151000B220BD4602B080BD80B582B000AF78607B6845
S3151000B2301B7EDBB201221343DAB27B681A76C04654
S3151000B240BD4602B080BD80B584B000AF78600F23D4
S3151000B250FB187A68127E1A700F23FB180F22BA1881
S3151000B260127801210A401A700F23FB181B785A1EF8
S3151000B2709341DBB21800BD4604B080BD80B582B0E4
S3151000B28000AF78607B681B7FDBB201221343DAB212
S3151000B2907B681A77C046BD4602B080BD80B582B0C5
S3151000B2A000AF78607B681B7FDBB201229343DAB272
S3151000B2B07B681A77C046BD4602B080BD80B584B0A3
S3151000B2C000AF78600A00FB1C1A700F23FB187A680F
S3151000B2D02421525C1A700F23FB180F22BA18127809
S3151000B2E001218A431A70FB1C19780F23FB180F22B1
S3151000B2F0BA1812780A431A707B680F22BA182421DA
S3151000B30012785A54C046BD4604B080BD80B584B08C
S3151000B31000AF78600A00FB1C1A700F23FB187A68BE
S3151000B3202421525C1A700F23FB180F22BA181278B8
S3151000B33002218A431A70FB1C1B785B005AB20F233A
S3151000B340FB181B785BB213435AB20F23FB181A7003
S3151000B3507B680F22BA18242112785A54C046BD466B
S3151000B36004B080BD80B584B000AF78600A00FB1CC5
S3151000B3701A700F23FB187A682421525C1A700F2357
S3151000B380FB180F22BA18127804218A431A70FB1C74
S3151000B3901B789B005AB20F23FB181B785BB2134322
S3151000B3A05AB20F23FB181A707B680F22BA18242181
S3151000B3B012785A54C046BD4604B080BD80B582B0DE
S3151000B3C000AF78607B6828229B5CDBB21A000123F1
S3151000B3D013405A1E9341DBB21800BD4602B080BD21
S3151000B3E080B582B000AF78607B68044A94466344A7
S3151000B3F01B0BDBB21800BD4602B080BD00A0FFBF1C
S3151000B40090B585B000AF78607B680E22BC18180026
S3151000B410184B9847030023700F23FB1800221A704D
S3151000B4201EE00F23FB181A78134913009B009B1874
S3151000B4305B005B5C0E22BA1812789A4209D10F2370
S3151000B440FB181A7813009B009B185B000A4A9B187E
S3151000B4500CE00F23FB181A780F23FB1801321A7011
S3151000B4600F23FB181B78002BDBD000231800BD46DA
S3151000B47005B090BDE1B3001038FF001080B582B062
S3151000B48000AF78607B681800034B984700231800BC
S3151000B490BD4602B080BDC04627B2001080B584B04C
S3151000B4A000AF786039603B681800334B984703004B
S3151000B4B0FB607B68002B04D03B68002B01D0012376
S3151000B4C000E000231A1C01231340D8B297235A0018
S3151000B4D02A4B19002A4B9847FB68002B02D10D23E3
S3151000B4E05B4245E03B681800264B9847031E02D086
S3151000B4F011235B423CE07B683A681A60FB685B7814
S3151000B500002B0BD03B6818001F4B9847FB689A8896
S3151000B5103B68110018001D4B984703E03B68180064
S3151000B5201B4B9847FB689A783B6811001800194B1B
S3151000B5309847FB68DB795A1E9341DAB23B681100D3
S3151000B5401800154B9847FB681B7A5A1E9341DAB2BE
S3151000B5503B6811001800114B9847FB689B795A1EDF
S3151000B5609341DAB23B68110018000D4B984700233F
S3151000B5701800BD4604B080BD01B4001044FF001091
S3151000B580E1A5001047B200107DB2001009B20010FC
S3151000B5909DB20010EBB10010BDB200100DB300103B
S3151000B5A065B3001080B582B000AF78607B68002B61
S3151000B5B005D07B681B68002B01D0012300E0002317
S3151000B5C01A1C01231340D8B2CF235A00064B190078
S3151000B5D0064B98477B681B681800054B9847030075
S3151000B5E01800BD4602B080BD44FF0010E1A5001052
S3151000B5F07DB4001080B582B000AF78607B6818000B
S3151000B600034B984703001800BD4602B080BDC046E4
S3151000B610BDB3001080B584B000AF786039603B6868
S3151000B6201B68002B07D03B681B68591C3A681160D1
S3151000B6301B78FB6001E0094BFB603B689B685A1C5A
S3151000B6403B689A60FB68DAB27B6811001800044BFD
S3151000B6509847C046BD4604B080BDC046FF010000F5
S3151000B660CDB1001080B58AB000AF786039607B68C4
S3151000B6701B683B6200237B623B681A680823FB1831
S3151000B6801A603B685A680823FB185A600823FB188F
S3151000B69000229A600823FB180022DA607B681A7968
S3151000B6A00823FB181A747B68002B04D03B6A002B06
S3151000B6B001D0012300E000231A1C01231340D8B245
S3151000B6C0A5239A001B4B19001B4B98473B6A180081
S3151000B6D01A4B984703001A001F23FB181A701F23D2
S3151000B6E0FB181B78002B02D114235B421EE03B6A29
S3151000B6F01800134B984703001A001F23FB181A70E3
S3151000B7001F23FB181B78002BF1D109E00823FA1828
S3151000B7103B6A110018000B4B98477B6A01337B621A
S3151000B7203B689A687B6A9A42F0D87B6A1800BD46D5
S3151000B7300AB080BD44FF0010E1A5001047B200100A
S3151000B740F5B5001015B6001080B582B000AF1B4BD2
S3151000B75098471B4B98471B4B1B4A1A60FA23DB0171
S3151000B7607B607A6880239902174B1800174B98470D
S3151000B770154AFA23DB010021D15008E0124AFA23B8
S3151000B780DB01D358591C104AFA23DB01D1500E4A5B
S3151000B790FA23DB01D3580C4A1B01D31804331B6858
S3151000B7A0013306D0084AFA23DB01D358084A9342DC
S3151000B7B0E4D9C046BD4602B080BDC04689BC001063
S3151000B7C009BA0010A48F0110A012011035BA00108A
S3151000B7D0CF07000080B500AF094AFA23DB01D35822
S3151000B7E0002B08D0064AFA23DB01D3585A1E044B05
S3151000B7F01201D35C00E000231800BD4680BDC04690
S3151000B800A012011080B582B000AF7860104AFA23FA
S3151000B810DB01D3580F4A934201D9FF2314E00C4A97
S3151000B820FA23DB01D358581C0949FA22D201885051
S3151000B830802292019446634419017B6810221800F5
S3151000B840054B98470300DBB21800BD4602B080BD19
S3151000B850A0120110CF07000051BB001080B500AF39
S3151000B8600C4B00229A600B4B0622DA60094B012220
S3151000B8701A75084B0022DA61064B81225A60C046BF
S3151000B880044B1B7EDB07DB0FDBB2012BF8D1C04666
S3151000B890BD4680BD0020014080B500AF0D4B002293
S3151000B8A09A600C4B0422DA600A4B01221A75094B76
S3151000B8B001225242DA61074B81225A60C046054B7B
S3151000B8C01B7EDB07DB0FDBB2012BF8D1C046BD4672
S3151000B8D080BDC0460020014080B582B000AF0E4B3F
S3151000B8E001229A600C4B0522DA600B4B01221A7565
S3151000B8F0094B3A1DDA61084B81225A60C046064B45
S3151000B9001B7EDB07DB0FDBB2012BF8D17B68DBB2CA
S3151000B9101800BD4602B080BD0020014080B588B039
S3151000B92000AFF860B960BB1D1A80324B98471423DC
S3151000B930FB1802221A70FB681B0CDAB21423FB18D0
S3151000B9405A70FB681B0ADAB21423FB189A70FB684C
S3151000B950DAB21423FB18DA70274B00229A60264BB2
S3151000B9601422BA18127811001422BA185278120238
S3151000B97011431422BA189278120411431422BA18D9
S3151000B980D27812060A43DA601B4B0F221A751A4B2D
S3151000B990BA68DA61184BBA1D128812021100842295
S3151000B9A00A435A60C046144B1B7EDB07DB0FDBB223
S3151000B9B0012BF8D11E23FB1800221A8006E01E2345
S3151000B9C0FB181A881E23FB1801321A801E23FB1837
S3151000B9D01B880A4A9342F2D1C046094B9847030086
S3151000B9E01A0001231340F8D1064B9847C046BD46AE
S3151000B9F008B080BD5DB8001000200140FFFF0000B8
S3151000BA00D9B8001099B8001080B500AF054B064A9A
S3151000BA109A66064B00221A70054B9847C046BD46DB
S3151000BA2080BDC04600B000403142000000200140F9
S3151000BA304DBC001080B58AB000AFF860B9607A606E
S3151000BA401423FB18180008231A0000213D4B9847B1
S3151000BA5000237B62FB683B62BA687B68D21880233E
S3151000BA60DB029A420ED900237B6207E03A6A7B6AB0
S3151000BA70D31800221A707B6A01337B627A6A7B685C
S3151000BA809A42F3D3FB68FB611423FB180B221A703E
S3151000BA90BB681B0CDAB21423FB185A70BB681B0A5E
S3151000BAA0DAB21423FB189A70BB68DAB21423FB18A7
S3151000BAB0DA701423FB18A5221A71234B7A68120226
S3151000BAC0120A9A60204B1422BA1812781100142206
S3151000BAD0BA185278120211431422BA189278120424
S3151000BAE011431422BA18D27812060A43DA60164B9A
S3151000BAF01422BA1812791A61134B1F221A75124B97
S3151000BB00FA69DA61104B85225A6000237B6202E0E3
S3151000BB107B6A01337B627B6AFE2BF9D9C0460A4BDE
S3151000BB201B7EDB07DB0FDBB2012B06D0074B9847DA
S3151000BB3003001A0001231340F1D1C046BD460AB0D6
S3151000BB4080BDC04675EF001000200140D9B8001026
S3151000BB5080B58AB000AFF860B9607A602723FB1809
S3151000BB60FF221A700023FB6102E0FB690133FB61BF
S3151000BB70FB69344A9342F8D9FB68002B59D07B688D
S3151000BB80002B56D0BA687B68D2188023DB029A4203
S3151000BB904FD8FB683B62BB68FF221340BB61BB6991
S3151000BBA0002B24D0BB6980225200D31A7B617A699C
S3151000BBB07B68934200D913009AB2396ABB681800A1
S3151000BBC0214B98477A687B699A4204D22723FB183F
S3151000BBD000221A702DE03A6A7B69D3183B62BA6864
S3151000BBE07B69D318BB607A687B69D31A7B607B68E4
S3151000BBF080225200934201D980235B007B617B69CE
S3151000BC009AB2396ABB6818000F4B98473A6A7B6933
S3151000BC10D3183B62BA687B69D318BB607A687B69B4
S3151000BC20D31A7B607B68002BE1D12723FB180022F7
S3151000BC301A702723FB181B785BB21800BD460AB092
S3151000BC4080BDC046FEFF01001DB9001080B500AFD3
S3151000BC500C4B00229A600B4BAB22DA60094B012287
S3151000BC601A75084B0022DA61064B81225A60C046CB
S3151000BC70044B1B7EDB07DB0FDBB2012BF8D1C04672
S3151000BC80BD4680BD0020014080B500AF0020074BA7
S3151000BC9098473720054B98470020054B98470121B8
S3151000BCA00020044B9847C046BD4680BD29C60010EB
S3151000BCB0B9BC0010CDC3001080B582B000AF020031
S3151000BCC0FB1D1A70FB1D1B78352B00D9A9E19A00B4
S3151000BCD0D74BD3181B689F46D64BD64AD26802213B
S3151000BCE00A43DA609FE1D34BD24AD26804210A4351
S3151000BCF0DA6098E1CF4BCF4AD26808210A43DA605E
S3151000BD0091E1CC4BCB4AD26810210A43DA608AE122
S3151000BD10C84BC84AD26820210A43DA6083E1C54B72
S3151000BD20C44AD26880210A43DA607CE1C14BC14A19
S3151000BD30D268802149000A43DA6074E1BD4BBD4ADE
S3151000BD40D268802109010A43DA606CE1B94BB94A1D
S3151000BD50D268802149010A43DA6064E1B54BB54ADD
S3151000BD60D268802189010A43DA605CE1B14BB14A9D
S3151000BD70D2688021C9010A43DA6054E1AD4BAD4A5D
S3151000BD80D268802109020A43DA604CE1A94BA94A1C
S3151000BD90D268802149020A43DA6044E1A54BA54ADC
S3151000BDA0D268802189020A43DA603CE1A14BA14A9C
S3151000BDB0D2688021C9020A43DA6034E19D4B9D4A5C
S3151000BDC0D268802109030A43DA602CE1994B994A1B
S3151000BDD0D268802149030A43DA6024E1954B954ADB
S3151000BDE0D268802189030A43DA601CE1914B914A9B
S3151000BDF0D2688021C9030A43DA6014E18D4B8D4A5B
S3151000BE00D268802109040A43DA600CE1894B894A19
S3151000BE10D268802149040A43DA6004E1854B854AD9
S3151000BE20D268802189040A43DA60FCE0814B814A9A
S3151000BE30D2688021C9040A43DA60F4E07D4B7D4A5A
S3151000BE40D268802109050A43DA60ECE0794B794A19
S3151000BE50D268802149050A43DA60E4E0754B754AD9
S3151000BE60D268802189050A43DA60DCE0714B714A99
S3151000BE70D2688021C9050A43DA60D4E06D4B6D4A59
S3151000BE80126901210A431A61CDE06A4B694A1269A7
S3151000BE9002210A431A61C6E0664B664A12690421FA
S3151000BEA00A431A61BFE0634B624A126908210A43CA
S3151000BEB01A61B8E05F4B5F4A126910210A431A6192
S3151000BEC0B1E05C4B5B4A126920210A431A61AAE071
S3151000BED0584B584A126940210A431A61A3E0554B40
S3151000BEE0544A126980210A431A619CE0514B514A07
S3151000BEF01269802149000A431A6194E04D4B4D4A5C
S3151000BF001269802189000A431A618CE0494B494A1B
S3151000BF1012698021C9000A431A6184E0454B454ADB
S3151000BF201269802109010A431A617CE0414B414A9A
S3151000BF301269802149010A431A6174E03D4B3D4A5A
S3151000BF401269802189010A431A616CE0394B394A1A
S3151000BF5012698021C9010A431A6164E0354B354ADA
S3151000BF601269802109020A431A615CE0314B314A99
S3151000BF701269802149020A431A6154E02D4B2D4A59
S3151000BF801269802189020A431A614CE0294B294A19
S3151000BF9012698021C9020A431A6144E0254B254AD9
S3151000BFA01269802109030A431A613CE0214B214A98
S3151000BFB01269802149030A431A6134E01D4B1D4A58
S3151000BFC01269802189030A431A612CE0194B194A18
S3151000BFD012698021C9030A431A6124E0154B154AD8
S3151000BFE01269802109040A431A611CE0114A114B97
S3151000BFF01B7DDBB201210B43DBB2137513E00D4A37
S3151000C0000C4B1B7DDBB202210B43DBB213750AE02E
S3151000C010084A084B1B7DDBB204210B43DBB21375B8
S3151000C02001E00A2300E001231800BD4602B080BDDE
S3151000C0305CFF001000B0004080B582B000AF020077
S3151000C040FB1D1A70FB1D1B78352B00D984E19A0055
S3151000C050C54BD3181B689F46C44BC44AD2680221ED
S3151000C0608A43DA607AE1C14BC04AD26804218A4316
S3151000C070DA6073E1BD4BBD4AD26808218A43DA60A3
S3151000C0806CE1BA4BB94AD26810218A43DA6065E18D
S3151000C090B64BB64AD26820218A43DA605EE1B34BCA
S3151000C0A0B24AD26880218A43DA6057E1AF4BAF4A71
S3151000C0B0D268AF490A40DA6050E1AC4BAB4AD2685D
S3151000C0C0AC490A40DA6049E1A84BA84AD268AA49A5
S3151000C0D00A40DA6042E1A54BA44AD268A7490A4051
S3151000C0E0DA603BE1A14BA14AD268A5490A40DA6061
S3151000C0F034E19E4B9D4AD268A2490A40DA602DE18E
S3151000C1009A4B9A4AD268A0490A40DA6026E1974BC0
S3151000C110964AD2689D490A40DA601FE1934B934ACA
S3151000C120D2689B490A40DA6018E1904B8F4AD26870
S3151000C13098490A40DA6011E18C4B8C4AD2689649CC
S3151000C1400A40DA600AE1894B884AD26893490A4064
S3151000C150DA6003E1854B854AD26891490A40DA6074
S3151000C160FCE0824B814AD2688E490A40DA60F5E0DB
S3151000C1707E4B7E4AD2688C490A40DA60EEE07B4BF1
S3151000C1807A4AD26889490A40DA60E7E0774B774AFB
S3151000C190D26887490A40DA60E0E0744B734AD26885
S3151000C1A084490A40DA60D9E0704B704AD2688249F5
S3151000C1B00A40DA60D2E06D4B6C4AD2687F490A4079
S3151000C1C0DA60CBE0694B694AD2687D490A40DA6089
S3151000C1D0C4E0664B654A126901218A431A61BDE0C3
S3151000C1E0624B624A126902218A431A61B6E05F4BBA
S3151000C1F05E4A126904218A431A61AFE05B4B5B4ABF
S3151000C200126908218A431A61A8E0584B574A1269E5
S3151000C21010218A431A61A1E0544B544A1269202115
S3151000C2208A431A619AE0514B504A126940218A4357
S3151000C2301A6193E04D4B4D4A126980218A431A6167
S3151000C2408CE04A4B494A126949490A401A6185E00D
S3151000C250464B464A12695B490A401A617EE0434BD7
S3151000C260424A126958490A401A6177E03F4B3F4AE1
S3151000C270126940490A401A6170E03C4B3B4A126908
S3151000C2803D490A401A6169E0384B384A12693B4900
S3151000C2900A401A6162E0354B344A126938490A403D
S3151000C2A01A615BE0314B314A126936490A401A610C
S3151000C2B054E02E4B2D4A126933490A401A614DE05B
S3151000C2C02A4B2A4A126931490A401A6146E0274B1D
S3151000C2D0264A12692E490A401A613FE0234B234A27
S3151000C2E012692C490A401A6138E0204B1F4A12691C
S3151000C2F029490A401A6131E01C4B1C4A1269274928
S3151000C3000A401A612AE0194B184A126924490A4050
S3151000C3101A6123E0154B154A126922490A401A611F
S3151000C3201CE0124A114B1B7DDBB201218B43DBB2A1
S3151000C330137513E00D4A0D4B1B7DDBB202218B43A7
S3151000C340DBB213750AE0094A084B1B7DDBB20421E8
S3151000C3508B43DBB2137501E00A2300E001231800BA
S3151000C360BD4602B080BDC0463400011000B000408A
S3151000C370FFFEFFFFFFF7FFFFFFEFFFFFFFDFFFFFF0
S3151000C380FFBFFFFFFF7FFFFFFFFFFEFFFFFFFDFF6A
S3151000C390FFFFFBFFFFFFF7FFFFFFEFFFFFFFDFFFD3
S3151000C3A0FFFFBFFFFFFF7FFFFFFFFFFEFFFFFFFD4A
S3151000C3B0FFFFFFFBFFFFFFF7FFFFFFEFFFFFFFDFB3
S3151000C3C0FFFFFFBFFFFDFFFFFFFBFFFF80B582B042
S3151000C3D000AF0200FB1D1A70BB1D0A1C1A70FB1D54
S3151000C3E01B78242B00D910E19A008B4BD3181B68AD
S3151000C3F09F468A4B894A926989490A409A61BB1DB0
S3151000C4001B78012B10D002DC002B05D0FFE0022B8D
S3151000C41012D0032B18D0FAE0804B804A9269C021C3
S3151000C42089010A439A6114E07C4B7C4A9269802107
S3151000C43089010A439A610CE0784B784A9269802107
S3151000C44049010A439A6104E0744B744A92699A61ED
S3151000C450C046DCE0714B714A926930218A439A6179
S3151000C4606E4B6E4A9169BA1D127812011000302275
S3151000C47002400A439A61CAE06849684AB0235B00E1
S3151000C480D358684A1A40B0235B00CA506349634ABE
S3151000C490B0235B00D258BB1D1B785B051800C02368
S3151000C4A0DB0303401A43B0235B00CA50AFE05B497D
S3151000C4B05A4AB2235B00D3585A4A1A40B2235B0039
S3151000C4C0CA505649554AB2235B00D258BB1D1B7839
S3151000C4D05B051800C023DB0303401A43B2235B003D
S3151000C4E0CA5094E04D494D4AB4235B00D3584D4A87
S3151000C4F01A40B4235B00CA504849484AB4235B002B
S3151000C500D258BB1D1B785B051800C023DB03034004
S3151000C5101A43B4235B00CA5079E040493F4AB62318
S3151000C5205B00D3583F4A1A40B6235B00CA503B49BA
S3151000C5303A4AB6235B00D258BB1D1B785B05180020
S3151000C540C023DB0303401A43B6235B00CA505EE0E8
S3151000C550324A3249A5239B00CB5CDBB20C218B43BC
S3151000C560D9B2A5239B00D1542C492C4AA5239B0054
S3151000C570D35CDAB2BB1D1B789B00DBB20C200340E8
S3151000C580DBB21343DAB2A5239B00CA543FE0234A19
S3151000C5902249A9239B00CB5CDBB20C218B43D9B279
S3151000C5A0A9239B00D1541D491C4AA9239B00D35C87
S3151000C5B0DAB2BB1D1B789B00DBB20C200340DBB24A
S3151000C5C01343DAB2A9239B00CA5420E0134A134935
S3151000C5D0AD239B00CB5CDBB20C218B43D9B2AD23D0
S3151000C5E09B00D1540D490D4AAD239B00D35CDAB2A2
S3151000C5F0BB1D1B789B00DBB20C200340DBB2134340
S3151000C600DAB2AD239B00CA5401E00A2300E00123ED
S3151000C6101800BD4602B080BD0C01011000B00040EC
S3151000C620FFCFFFFFFFFF9FFF80B582B000AF020074
S3151000C630FB1D1A70FB1D1B78432B00D9B2E29A0022
S3151000C640E84BD3181B689F46E74BE74A526802210E
S3151000C6508A435A60E44BE44A526802210A435A60FC
S3151000C660A2E2E14BE04A526804218A435A60DE4B4B
S3151000C670DD4A526804210A435A6095E2DA4BDA4AD7
S3151000C680526808218A435A60D74BD74A5268082104
S3151000C6900A435A6088E2D44BD34A526810218A431F
S3151000C6A05A60D14BD04A526810210A435A607BE235
S3151000C6B0CD4BCD4A526820218A435A60CA4BCA4A8A
S3151000C6C0526820210A435A606EE2C74BC64A526826
S3151000C6D040218A435A60C44BC34A526840210A43D8
S3151000C6E05A6061E2C04BC04A526880218A435A6040
S3151000C6F0BD4BBD4A526880210A435A6054E2BA4B78
S3151000C700B94A5268B9490A405A60B74BB64A526894
S3151000C710802149000A435A6046E2B34BB24A526836
S3151000C720B3490A405A60B04BAF4A5268802189001B
S3151000C7300A435A6038E2AC4BAB4A5268AD490A40DC
S3151000C7405A60A94BA84A52688021C9000A435A6008
S3151000C7502AE2A54BA44A5268A7490A405A60A24B3E
S3151000C760A14A5268802109010A435A601CE29E4B75
S3151000C7709D4A5268A1490A405A609B4B9A4A526890
S3151000C780802149010A435A600EE2974B964A526835
S3151000C7909B490A405A60944B934A526880218901FA
S3151000C7A00A435A6000E2904B8F4A526895490A40F4
S3151000C7B05A608D4B8C4A52688021C9010A435A60CF
S3151000C7C0F2E1894B884A52688F490A405A60864B73
S3151000C7D0854A5268802109020A435A60E4E1824B75
S3151000C7E0814A526889490A405A607F4B7E4A52688C
S3151000C7F0802149020A435A60D6E17B4B7A4A526835
S3151000C80083490A405A60784B774A526880218902D8
S3151000C8100A435A60C8E1744B734A52687D490A400C
S3151000C8205A60714B704A52688021C9020A435A6095
S3151000C830BAE16D4B6C4A526877490A405A606A4BA6
S3151000C840694A5268802109030A435A60ACE1664B73
S3151000C850654A526871490A405A60634B624A526887
S3151000C860802149030A435A609EE15F4B5E4A526833
S3151000C8706B490A405A605C4B5B4A526880218903B7
S3151000C8800A435A6090E1584B574A526865490A4024
S3151000C8905A60554B544A52688021C9030A435A605C
S3151000C8A082E1514B504A52685F490A405A604E4BDA
S3151000C8B04D4A5268802109040A435A6074E14A4B72
S3151000C8C0494A526859490A405A60474B464A526883
S3151000C8D0802149040A435A6066E1434B424A526832
S3151000C8E053490A405A60404B3F4A52688021890496
S3151000C8F00A435A6058E13C4B3B4A52684D490A403C
S3151000C9005A60394B384A52688021C9040A435A6022
S3151000C9104AE1354B344A526847490A405A60324B0D
S3151000C920314A5268802109050A435A603CE12E4B70
S3151000C9302D4A526841490A405A602B4B2A4A52687E
S3151000C940802149050A435A602EE1274B264A526830
S3151000C9503B490A405A60244B234A52688021890574
S3151000C9600A435A6020E1204B1F4A526835490A4053
S3151000C9705A601D4B1C4A52688021C9050A435A60E9
S3151000C98012E1194B184A5268520052085A60164B57
S3151000C990154A5268802109060A435A6004E1124A70
S3151000C9A0114B1B899BB201218B439BB213810E4AFB
S3151000C9B00D4B1B899BB201210B439BB21381F3E0F4
S3151000C9C0094A094B1B899BB202218B439BB21381E7
S3151000C9D0054A054B1B899BB202210B439BB213815F
S3151000C9E0E2E0C046A001011000B00040FFFEFFFFCC
S3151000C9F0FFFDFFFFFFFBFFFFFFF7FFFFFFEFFFFF4F
S3151000CA00FFDFFFFFFFBFFFFFFF7FFFFFFFFFFEFF01
S3151000CA10FFFFFDFFFFFFFBFFFFFFF7FFFFFFEFFF2E
S3151000CA20FFFFDFFFFFFFBFFFFFFF7FFFFFFFFFFEE1
S3151000CA30FFFFFFFDFFFFFFFBFFFFFFF7FFFFFFEF0E
S3151000CA40FFFFFFDFFFFFFFBF5A4A5A4B1B899BB2FE
S3151000CA5004218B439BB21381564A564B1B899BB2BA
S3151000CA6004210B439BB213819EE0524A514B1B8902
S3151000CA709BB208218B439BB213814E4A4D4B1B89A7
S3151000CA809BB208210B439BB213818DE0494A494B57
S3151000CA901B899BB210218B439BB21381454A454B90
S3151000CAA01B899BB210210B439BB213817CE0414A38
S3151000CAB0404B1B899BB220218B439BB213813D4A6D
S3151000CAC03C4B1B899BB220210B439BB213816BE01D
S3151000CAD0384A384B1B899BB240218B439BB213813A
S3151000CAE0344A344B1B899BB240210B439BB21381B2
S3151000CAF05AE0304A2F4B1B899BB280218B439BB245
S3151000CB0013812C4A2B4B1B899BB280210B439BB262
S3151000CB10138149E0274A274B1B899BB226490B40B4
S3151000CB209BB213812349234B1B899BB2802252004F
S3151000CB3013439BB20B8137E01E4A1E4B1B899BB2D7
S3151000CB401E490B409BB213811A491A4B1B899BB283
S3151000CB508022920013439BB20B8125E0154A154B98
S3151000CB601B899BB216490B409BB213811149114B7D
S3151000CB701B899BB28022D20013439BB20B8113E018
S3151000CB800C4A0C4B1B899BB20E490B409BB213816E
S3151000CB900849084B1B899BB28022120113439BB292
S3151000CBA00B8101E00A2300E001231800BD4602B004
S3151000CBB080BDC04600B00040FFFEFFFFFFFDFFFF37
S3151000CBC0FFFBFFFFFFF7FFFF80B500AF064A074BDD
S3151000CBD011001800064B9847044B1800054B984750
S3151000CBE0C046BD4680BDC046A88F01106412011014
S3151000CBF0699F0010A19E001080B500AF064A074B32
S3151000CC0011001800064B9847044B1800054B98471F
S3151000CC10C046BD4680BDC0464011011050120110DD
S3151000CC20D5A1001065A0001080B582B000AF786065
S3151000CC30044B1B685A1C034B1A60C046BD4602B013
S3151000CC4080BDC0463011011080B500AF0A4B0122DD
S3151000CC509A60094B094ADA60074B01221A74064A90
S3151000CC60074B11001800074B9847054B1800064B49
S3151000CC709847C046BD4680BDAC8F011029CC001028
S3151000CC808412011009A30010B9A2001080B500AFDC
S3151000CC90034B9847034B9847C046BD4680BDC046D8
S3151000CCA0C9CB0010F9CB001080B500AF024B9847E6
S3151000CCB0C046BD4680BDC046FDCF001080B500AF52
S3151000CCC00120044B98470020034B9847C046BD46A9
S3151000CCD080BDC046B19100103D84001090B585B05E
S3151000CCE000AF78607B680F4A9A180F4B0F491000F7
S3151000CCF0984703001A000E4B100098470D4C0E4A29
S3151000CD000E4BA04703000C00190022000C4B080024
S3151000CD1011009847031CFB60FB68181CBD4605B044
S3151000CD2090BDC0466079FEFF89D70010060400004A
S3151000CD3075EC00100DE400101F85EB51B89E2340D2
S3151000CD409DED001080B500AF064B9847064B9847EF
S3151000CD50064B9847064B9847064B9847C046BD4624
S3151000CD6080BDC0468DCC0010A9CC0010BDCC0010E3
S3151000CD7049B7001049CC001090B59DB002AF7D4B5D
S3151000CD80984700233B644023FA187B4B1100180088
S3151000CD907A4B98475F23FB1801221A703823FB1829
S3151000CDA000221A803823FB1800225A803823FB18D9
S3151000CDB000229A803023FB1800221A803023FB1899
S3151000CDC000225A803023FB1800229A800023002468
S3151000CDD03B657C652823FB1800221A602823FB1864
S3151000CDE000225A600023FB646723FB1800221A7086
S3151000CDF02423FB1800221A702423FB1800225A70D1
S3151000CE005F4B984702006623FB181A7000233B6697
S3151000CE105C4A5D4B01938023009380230021002000
S3151000CE205A4CA047FA239B001800594B98470023E9
S3151000CE3000938023802200210020564CA047142303
S3151000CE40FB18180010231A000021534B98474B2348
S3151000CE50FB1800221A702823FB18190008204F4BC4
S3151000CE6098472823FB185A6813009B009B185B00F1
S3151000CE7018004B4B9847031CFB644A4BFE2189054F
S3151000CE80F86C9847031E16D06723FB181B780122EF
S3151000CE905340DBB2002B09D06623FB181A786623A1
S3151000CEA0FB1801321A70404B1B683B666723FB1850
S3151000CEB001221A700CE03D4BF86C98473C4C3D4AE9
S3151000CEC03D4BA047031E03D06723FB1800221A70A0
S3151000CED06723FB181B78002B37D0334B1A683B6E31
S3151000CEE0D31A7B647A6C354B3C21100098470300AB
S3151000CEF0DAB22423FB181A707A6C314B3C211000DD
S3151000CF0098470B00DAB22423FB185A701423FB1827
S3151000CF106622BA1812781A701423FB187A6C5A60A3
S3151000CF202823FB181A681423FB189A602823FB1869
S3151000CF305A681423FB18DA604B23FC181423FB18C9
S3151000CF401800204B9847030023703B002422BA1880
S3151000CF501A603B002822BA189A603B00FA6CDA6015
S3151000CF603B006622BA1812781A743B001800164B4A
S3151000CF70984770E745CD00108412011005A40010E3
S3151000CF80D5B70010B4020110FFFF0000698D001024
S3151000CF9049D60010B58E001075EF001049D100105B
S3151000CFA0DDCC001029DA001030110110F9EC001058
S3151000CFB08DD90010333333333333D33F75D6001046
S3151000CFC081D7001005B800109981001080B582B085
S3151000CFD000AF074B7B607B6800221A70054B9847A1
S3151000CFE0054B984700231800BD4602B080BDC046C9
S3151000CFF018600040D580001079CD001090B585B02E
S3151000D00000AF214B76229A83204B1B681C681F4B5E
S3151000D0101B681F4901221800A0470300BB603B1D77
S3151000D02000221A800F23FB1800221A7022E00F2309
S3151000D030FB181B785033DBB2DB18D9B23A1D1248F5
S3151000D0400223144CA0470F23FB181A783B1D1B789C
S3151000D0501B0219B23B1D5B781BB20B431BB299B274
S3151000D0600D4B5200D1520F23FB181A780F23FB18C1
S3151000D07001321A700F23FB181B78062BD7D9002301
S3151000D0801800BD4605B090BD64120110A88F01109E
S3151000D090B40A0110C19E0010C88F011090B587B058
S3151000D0A000AF0200FB1D1A70BB1D0A1C1A70224B22
S3151000D0B076229A834022FB1D1B78D318DAB2BB1D49
S3151000D0C01B78D318DAB20F23FB181A701B4B1B6888
S3151000D0D01C681A4B1B680F22B91801221800A047AA
S3151000D0E003007B610A20164B98470C23FB1800227D
S3151000D0F01A700C23FB1800225A700C23FB180022FE
S3151000D1009A700C23FA180C48032300210D4CA047E3
S3151000D1100C23FB181B781A040C23FB185B781B02D4
S3151000D120D3180C22BA1892789B183B613B691800E9
S3151000D130BD4607B090BDC04664120110A88F0110FD
S3151000D14049D60010C19E0010F0B5C3B000AF030061
S3151000D150B822BA181160BF22BA181370744A76230F
S3151000D1609383BF23FB181B7819001020714B984727
S3151000D1700300EC22BA181360BF23FB181B781900A2
S3151000D18000206C4B98470300E822BA1813606A4BCC
S3151000D1905B891A02EC23FB181B689B1AE422BA1847
S3151000D1A01360E423FB181B688022BA181360DB1780
S3151000D1B08422BA181360604B9B89BB670023FB67F8
S3151000D1C05E4CBA6FFB6F8021791808684968A047D2
S3151000D1D003000C006202DD0D1543E6152B00FA2242
S3151000D1E0D20094466344E022BA181360E023FB1879
S3151000D1F01A68534B9A4200DDAAE0E423FB181B6819
S3151000D2003B67DB177B67E423FB181B68BB66DB17E2
S3151000D210FB664A4CBA6EFB6E386F796FA0470300F7
S3151000D2200C0062103A66E3177B66396E7A6E0B0055
S3151000D2301400DB1864415B1854417A1CFF321360EA
S3151000D2405460E023FB181B683E4A9A18E023FB182B
S3151000D2501B683C498C4663445A4313005B009B1879
S3151000D260002B00DA01335B10F822BA181360DB17B3
S3151000D270FC22BA181360E023FB181B68314A9A186F
S3151000D280E023FB181B682F498C4663445A4313004E
S3151000D2909B009B18002B00DA0733DB10F022BA181C
S3151000D2A01360DB17F422BA181360E023FB181A6810
S3151000D2B0254B9A4200DBAAE0E023FB181B68234AA1
S3151000D2C09A18E023FB181B6820498C4663445A437E
S3151000D2D01300DB009B1ABB65DB17FB65F823FB18F5
S3151000D2E05C681B68B96DFA6D5B185441F822BA1860
S3151000D2F013605460E023FB181B68144A9A18E02345
S3151000D300FB181B6811498C46634453439B003B65CD
S3151000D310DB177B65F023FB185C681B68396D7A6D2B
S3151000D3205B185441F022BA18136054606FE0C0467F
S3151000D330641201109DD00010C88F011091DA0010F0
S3151000D340CF07000030F8FFFF24FAFFFFDC050000CE
S3151000D35000232024D822BA1813605460E423FB1843
S3151000D3601B68BB64DB17FB64E423FB181B683B6478
S3151000D370DB177B64AE4C3A6C7B6CB86CF96CA047CF
S3151000D38003000C001800210003000C005A0FE500E2
S3151000D3909C26BE1935609C257D192D6815439C2247
S3151000D3A0BA181560DB009822BA1813609823FB1878
S3151000D3B05C681B681B1A8C41180021009D4CD823F1
S3151000D3C0FB181A685B68A04703000C007A1CFF3232
S3151000D3D013605460E023FB181B68974A9A18E023E1
S3151000D3E0FB181B6894498C4663445343002B00DAA0
S3151000D3F00F331B11F822BA181360DB17FC22BA1868
S3151000D400136000230024F022BA18136054608B4B6B
S3151000D4109B88BB630023FB63BB6BFC6B1A00121467
S3151000D4207A631B043B63854B1B89BB620023FB623B
S3151000D430E423FB181B683B62DB177B627C4C3A6A61
S3151000D4407B6AB86AF96AA04703000C006206D9091C
S3151000D450B02038180160B021791809681143B0223C
S3151000D460BA181160E311B422BA1813603B6B7C6BC7
S3151000D470B022BA18116852685B185441D022BA18F3
S3151000D480136054606D4B5B88BB610023FB61B96907
S3151000D490FA690B005B0C1000C003AC243C19206029
S3151000D4A0AC20381800681843AC23FB1818600B0022
S3151000D4B0DB03A822BA181360604BDB883B6100239C
S3151000D4C07B61E423FB181B68BB60DB17FB60584CC1
S3151000D4D0BA68FB6838697969A04703000C00220610
S3151000D4E0190AA02038180160A0217918096811437B
S3151000D4F0A022BA1811602312A422BA181360A82306
