:020000041000EA
:1051840040BA704740BA7047C0BA7047C0BA704757
:10519400F8B51E4617460C46104602F0D7FA3F28CB
:1051A40031D04C4821888089002805D0821D4A4D81
:1051B400914203D1022410E00022F8E7002804D031
:1051C400821C914203D1002407E00022F9E7002861
:1051D40000D0001D81420AD1012440480068012307
:1051E40081B23A463E4802F0B7FA047009E0062359
:1051F4003A4631463B4802F0AFFA218801808021CB
:105204000171296888470020F8BDFFB581B00C46BC
:10521400039802F09BFA3F2836D003982278000ABC
:10522400010200262F482B4D0931002A05D0022700
:10523400012A17D0022A27D129E06288921D93B24D
:10524400039A02F089FA0746A889002800D0801C36
:1052540038803E7162887A80211D781D02F082FABE
:1052640038460EE00823039A02F076FAA989002949
:1052740000D0091D01800671478062884271120ABC
:105284008271154909688847002005B0F0BD0E23D6
:10529400039A02F061FAA989002900D0891D0180CE
:1052A40006710821418062884271120A8271A288C3
:1052B400C271120A0272E2884272120A827222894E
:1052C400C272120A0273DCE710B50749142002F017
:1052D4004FFA10BDE4080410E40004101800041090
:1052E4000A0E0000140C0000DC7B001010B5104600
:1052F4000C4602F02BFA07CC01F0CEFF002010BDC3
:1053040010B51446104602F021FA2348006806231B
:1053140081B22246214802F01FFA0446002001F01F
:10532400C5FCA0700112E1700912217109126171AA
:105334000120607000201A492070096820468847BF
:10534400002010BD10B51446104602F0FFF91248B3
:105354000068062381B211482246401C02F0FCF981
:105364000446002001F028FDA070010AE170090A3A
:105374002171090A617101206070002008492070C0
:10538400096820468847002010BD10B5054915203E
:1053940002F0EEF910BD00001800041001380000FE
:1053A400E40004101C7C001010B532480024046092
:1053B400314941603148017B491C017301688C60AB
:1053C40000682F49884201D10C2000E00D2000F034
:1053D40049F828484038046110BD70B5294C0125AE
:1053E400012818D00D2000F03DF8680320602648FD
:1053F4000122264912079160254A02600321816037
:105404001E498A600860002008730D7122492148F2
:105414000968884770BD0C2000F024F801200003BF
:1054240020601748E4E7154901200968C8607047FF
:1054340010B51248002102689160124C0068803453
:10544400012809D00D2000F00DF801204003206050
:1054540012480068804710BD0C2000F003F80120BA
:105464000003F4E7C106C90E012088400C49086016
:105474007047000040F0004078563412DC7C001085
:105484000080004000E100E000900040AD530010B7
:1054940000B6FB5C80C8BC456C7B0010707B0010C0
:1054A40080E200E010B5144901200968C86013487F
:1054B40000688047012012498006086010BD10B5BD
:1054C40001210D4A890711600D4B0A111A600E4C17
:1054D4000C4BA3628860092008600C48026010BD70
:1054E4000549002009680860012005498006086014
:1054F4000649803108607047747B0010647B00109B
:1055040080E200E0A95400108000001000E100E0F7
:105514001CB5554800250560544F3D60012002F03C
:105524002DF902F031F9524800688047514E307B22
:105534004007400F032803D84F49002009688847D3
:105544004E48017800290ED04DA206CA019200915E
:10555400057000220521684602F01CF9002205218D
:10556400684602F01DF9B068400003D4464801784B
:105574000029FCD002F01AF902F01EF902F022F917
:105584004349424C09686068884700F005FD41487A
:105594000068052803D10120C00302F019F900F0C6
:1055A40096FCA0688047B06840000AD4207801289F
:1055B400FCD16078002804D0657038493648C8604A
:1055C400FEE702F00BF9FFF77FFEFFF7DEFE34483B
:1055D4000068804762B6334802F006F9307B000762
:1055E40001D502F007F930484168821591434160C2
:1055F4002E490620096888472D490C2088612D4DC5
:10560400194C2D4E02F0FCF82868012807D100201F
:1056140028602A480168002901D00068804738685A
:10562400002805D02068002802D021680F48884748
:10563400306880470028E5D0214802F0E7F8E1E728
:105644000146002000290CD0022907D10E490A780E
:10565400022A04D00978012900D11A4870471A484F
:105664007047194810387047D41F0410D81F04100D
:105674006001041028080410C0010410250004105F
:10568400424F555421000000D900041000000410BA
:1056940004010410180004100400FA0500ED00E0F1
:1056A40054010410BC03041000F400401002041060
:1056B40000E20040347C00100C010410440104108A
:1056C400EC050410787B0010CCE20100F0B5F94A37
:1056D4001668F949F94BF94840338C12CD12002E63
:1056E40026D0866857680E403F07FF0F7F04374374
:1056F40087609E680E4051680907C90F4904314309
:1057040099604169536821405B07DB0FDB010B4360
:1057140043614169536829409B07DB0F9B010B439D
:105724004361E74943690B405168C907C90F2EE03B
:10573400E44AD668760DF6072CD1D668360DF607FE
:1057440028D08668D7680E403F03FF0F7F04374395
:1057540087609E680E40D1680903C90F490431432C
:1057640099604169D3682140DB04DB0FDB010B4303
:1057740043614169D36829401B05DB0F9B010B433F
:105784004361CF4943690B40D1684905C90FC90337
:1057940019434161F0BD7047CB480168CB480129EA
:1057A40015D000210161CA494868012210434860AC
:1057B400C84988698A1590438861C74800680028E9
:1057C40004D1C6490869042210430861704701697D
:1057D4000907090FE6E7C24FC24C00263868804724
:1057E40000280DD1207A02280AD002F015F80228E8
:1057F400FBD002F011F8002802D100BF0120207272
:10580400207A002500280FD0012822D00228E5D1D3
:10581400B5480088002802D0B44800688047B448DE
:10582400006801287ED0A0E0E079002800D130BFD4
:10583400B04D28780128D1D101F0F4FF2E7001F089
:10584400F7FFAD4800680028C8D1AB4801F0CCFF91
:10585400C4E7042001F0F2FF38688047002801D033
:105864002672BBE701F0F0FF9A4840300169914885
:10587400016101F0EFFF0028FBD101F0D3FF9C4848
:105884000068012804D19D48416880221143416089
:1058940001F0E6FF96480068012804D19748426861
:1058A40008218A434260207A022897D0022020727D
:1058B40093480068C10705D0012149040D432179AB
:1058C400491C2171800702D46069002805D0012099
:1058D400800405436079401C607101200004054385
:1058E4006670E078401CE07086480168002901D0A9
:1058F400006880477E480068012804D17F494868D1
:1059040080229043486080490120096888476D4F90
:10591400387C01281FD000207C492843084301F02B
:10592400A5FF00E01AE03E74A16A00208847694898
:10593400816902221143816175488169C0229143C2
:105944008161826981158A438261724C2068804733
:105954000028FBD1FEE701204002DDE767488821EB
:105964000161416808221143416001F085FF6A49E1
:105974000868002806D054480068012802D0096845
:10598400012088476078002801D001F07BFF01F0F6
:105994007FFF484801694F484030016101F07EFFB4
:1059A4005E48006880475E48006880474548C06894
:1059B4004007400F032803D85A4901200968884743
:1059C400A078401CA070206A002801D0206A80477B
:1059D400A16A01208847544800688047FFF7DCFE2D
:1059E40062B63DE710B5EFF31084504A72B6116801
:1059F4005068491C002358411160506001F05AFE60
:105A040062B684F3108810BDF8B54948816BCD06A1
:105A1400816BED0E8905CB0E816B806B0C0E0C2116
:105A24000C400005800F044341488030406B01273F
:105A3400C0012249C60F4869002D05D002461F2027
:105A44004002824368021043002B04D01F225204F8
:105A540090435A0410434861486880088000002E2F
:105A64000CD003221043486032497C204860114F17
:105A7400314D387B314E012802D098E03843F2E7AB
:105A840025490868002802D00968012088472C4865
:105A940000220260164802602B492A4808602C49FB
:105AA4002A4808600B4800682A49884256D12A4887
:105AB40055E00000887B0010FFFFFDFF0008024056
:105AC400FF7FFFFF28080410C81F041000B2004025
:105AD4000040014000B00040D47C001000ED00E024
:105AE4008C0104101C00041094000410A000041085
:105AF400DC1F041041010410EC05041000100140E7
:105B040068010410687B00101002041001004000BA
:105B140000E2004088010410607B00107001041052
:105B240060010410C0010410540104104002041068
:105B340000A000400051024040E0004096000410E4
:105B4400C41F0410056B0010D01F0410A56B0010B7
:105B5400CC1F0410B1002000068C00002C482D49F5
:105B64008860002C06D048680F231B049843230444
:105B740003434B60294928480880294904200880A8
:105B84002848286028486860294928480880294806
:105B9400E86029482861294830803088A86028496D
:105BA4000720486103202749800348613A73B96894
:105BB40025480268914219D00168B960006800283C
:105BC40009D01B48214901802148E8601048C01EC3
:105BD4002861204807E01649144808801548E86001
:105BE40015482861154830803088A8601A494868EB
:105BF40007221207104348600F481849401E0862E4
:105C0400F8BD012116480907486001F04DFE000067
:105C1400060C000000F40040C4090000A87B00103A
:105C24009C0004100000020303040506D7050000CD
:105C34009000041017160201031600001C2900002E
:105C440000F0004000000140D47C0010A6040000D5
:105C54000D0C0201121F00000040024040180440D5
:105C6400ADE10100F8B5464C2069002806D045484E
:105C74000068002802D1434801F0B6FD424E434F6C
:105C84002569002D7BD0280603D58020A06101F072
:105C940011FEA80703D50220A06101F011FE280718
:105CA40004D50820A061002001F010FEE80505D508
:105CB400FF200130A061012001F008FEA80504D5F1
:105CC40001204002A06101F007FE680603D54020D0
:105CD400A06101F007FEE80603D51020A06101F0E1
:105CE40007FE680737D52A480068012803D1716880
:105CF40080200143716022480121C030C163C16B1F
:105D04000029FCD1E069234908602349042009687B
:105D140088471F480068012803D1706880218843A0
:105D240070600420A0611D49002008621C480068BE
:105D3400804717480068012803D170680821884308
:105D440070603888002806D016480068804701F043
:105D5400D5FD01F0AFFDE8070BD03888002808D145
:105D64000120A0610F480068804701F0C7FD01F0E1
:105D7400A1FDA80684D52020A06181E7FFE7F8BD36
:105D840000000440EC0504100010014094000410CD
:105D9400DC1F04109C7B00101002041000B00040B3
:105DA4001001041074010410FEB5044601F0ACFDAA
:105DB400009001F0AFFD0746207A25460007000F4A
:105DC400643501902646A8782436002801D101F0D4
:105DD400A7FD304601F0AAFD21462C4801F0ACFD98
:105DE400A8782B49002803D10098F84200D00888ED
:105DF40001980222830027481B181A80F08D5880CE
:105E04000098AE78C0190643234D244A2448012340
:105E1400002E30D10E88F6072DD0002606802D687E
:105E2400002D01D0138000E016801E4A0123D363A5
:105E3400D36B002BFCD11B4AC03A126A4260426801
:105E4400194B1A48E62A0ED3A468194A641E5462F0
:105E54008C881462498891621968012903D14168C8
:105E64008022914341601968012903D141680822C5
:105E740091434160FEBD03802968002901D00421BB
:105E840000E0032111804380FEBD00005C08041083
:105E94007C00041000000340D47C00109C0004101B
:105EA400A07B0010C0000440DC1F0410001001405F
:105EB40040400240164909684843810AC20B8918C8
:105EC400000C0818FF30FF300230800A704770B5AC
:105ED400104C2088FFF7EEFF0F4B06461888FFF79B
:105EE400E9FF85B25888FFF7E5FF7105AA0280B281
:105EF400114301430948C16358882188814200D96C
:105F040008461988884200D8084601F01BFD70BD78
:105F140004020410A87B0010900004100000044048
:105F240010B5040AC0B2102834D00EDC0C2823D0DB
:105F340006DC032817D00A2820D00B2811D119E039
:105F44000D2813D00E280CD112E037281AD004DC07
:105F5400112815D0122804D11AE0382814D0392871
:105F640014D001F0F5FC2102084310BD0A20FAE721
:105F74000B20F8E70820F6E70920F4E70720F2E70A
:105F84000520F0E71420EEE71520ECE70E20EAE701
:105F94000620E8E70420E6E710B5032001F0DEFC64
:105FA4000249032001F0E4FB10BD0000C07A001098
:105FB40070B518460D46014600248223264801F098
:105FC400CBFB69792A68002901D0802901D91221E3
:105FD40027E02B79082B08D0102B0FD0202B1BD0B7
:105FE4001EE0135D0519AB70641C8C42F9D316E0F6
:105FF400135B0519AB701B0AEB70A41C8C42F7D31E
:1060040049000CE013590519AB701B0AEB701B0A0D
:106014002B711B0A6B71241D8C42F3D389004170D0
:1060240000210170014642780C39921C4A810B49C7
:1060340009688847002070BD10B50A79CD2080001A
:10604400002A04D00A68194601F08EFC02E01946C1
:1060540001F090FC002010BD19030000E4000410BE
:1060640070B504462A480C3CC06AC507E088ED0FA9
:10607400052812D0EFF3108672B62648214601F0A7
:106084005BFC62B686F31088A0882349884211D14C
:10609400E088C1B20B2909D00CE00120800301F093
:1060A40097FB21461D4801F06BFC1AE0000A000230
:1060B4001430E080E088042810D0208904280DD111
:1060C400002D04D016480068002804D006E01549C5
:1060D4000120086202E0124801F086FB012001F071
:1060E40055FCA0881049884210D11049E0880968FD
:1060F40088420BD11B2001F02BFC044601F026FB47
:10610400012803D10021204601F046FC70BD0000A7
:10611400C0B10040D40B0410130C0000200C041078
:10612400EC05041000B00040030E00001800041039
:10613400FEB5C248BF4EC04D41690024C909C9011A
:106144005522114341618168490849008160C16950
:10615400BB4A1140C161C16902221143C161B948FE
:10616400270538180D2101F01DFC0190B6480D21BA
:10617400381801F017FC0090B44861000F1880042F
:10618400394601F015FCB14A3946504301F010FC80
:10619400AE4A3946504301F00BFC9D21484301218E
:1061A400490440189D21800C0902421821460C2301
:1061B400594301987050A64B881943608260009837
:1061C4006850A44849194860641CE4B2282CC6D31A
:1061D4000125A148ED050560A04A426000218160C7
:1061E4009F4BC360016141618561C2610562436285
:1061F4008162C162914CE06902218843E061E069F7
:106204008F49C9430843E061A06801210843A060A5
:106214009448E061954894490160954941609549E5
:106224008160FFF753FA9448606195499348086088
:106234004868802290434860924908689204104359
:106244000860914908681212A84390438F4A126863
:10625400002A02D10722120290430722120590431A
:106264000860FEBD10B5754C60695521C009C001B8
:10627400084360617D487C4901607D4941607D49F6
:106284008160FFF723FA7C4860617648E061E06949
:10629400744980390843E061A06801210843A06083
:1062A4007849086822021043086077490868412247
:1062B40052049043754A1268002A02D1072212023E
:1062C4009043072212059043086010BD40B2704706
:1062D40070B500216E4A15230D461B028C182560EB
:1062E400091D9942FAD303216A4A0904D1626A4911
:1062F40001626A4941626A49062241612C210A54B9
:106304006849816268490160684941606849C161BE
:10631400694968480860684C403C206B890388439D
:106324000843206301F04AFB64488560A06B0001C8
:106334000009A1050843A063404C032060630920C1
:106344005F498005C860FFF7F3FE4E495D48803120
:1063540048605E485C4941615D4981615D49C16154
:1063640058491331016241484030C1685A4A890989
:10637400126889011143C160A0680121890388431F
:10638400A06070BD70B55548008800280AD005206B
:10639400000200233E491522120244182360001D06
:1063A4009042FAD34E480068244C60614D4800681E
:1063B4002E494861032037490004C8623E493D48DC
:1063C40008603D4D403D286B89038843084328639A
:1063D40001F0F4FAFFF718FBA86B00010009E102D1
:1063E4000843A8634048006880470320606309208D
:1063F40033498005C860FFF735FF224931488031B1
:106404004860324830494161314981613149C16153
:106414002C491331016215484030C1682E4A89095C
:10642400126889011143C160A0680121890388436E
:10643400A06070BD00280240002A02400000024013
:10644400FFCFEFFE0700104B0700184B6209000056
:10645400AF553D42AF550142002C0240608004001C
:106464006080000080301001022400000008024017
:1064740011EE3864E40E01004391026A0701600FD3
:1064840000F400400018044080010240D47C001055
:1064940000000340801A044045B6010037B60100ED
:1064A4005BB3010063B301002FB3010049B30100E2
:1064B400D162001056074A058000044000F00040F5
:1064C4000040024003030000FFE8D6D60019044050
:1064D400C4AF99816A510000AC7B0010A07B00100E
:1064E400B47B0010B87B00108401041001218903DF
:1064F400884200D30846814909684843C10A420BCF
:106504005118420C5118820C5118C20C5118020D2A
:106514005118820D5118020E5118420E5118820E54
:10652400401C5118800F401800D0401E704770471F
:10653400FEB5002640200090EFF310800190704CCF
:1065440072B60120608001F03FFA00286BD002206F
:106554000126608001F060F90228FBD003206080EE
:1065640001F05AF90028F1D0654D042060800C3503
:10657400E8780028EAD0052060802888002852D1D5
:10658400072060805F4800905F480088002804D09E
:106594005E48A97800880F1802E0A8786168471857
:1065A400082060805A480088002803D001F012FABD
:1065B4000028FBD0092060803946684601F010FAB3
:1065C400002830D00A20608001F010FA00282AD078
:1065D4000B2060803946684601F00EFA002822D06C
:1065E4004A4800990088081A05281CD30C206080AA
:1065F40001F008FA002815D00F2060804548006893
:106604008047002803D044480068800770D41020D5
:10661400608042490020086241480068414F0128D7
:1066240002D005E0002663E07868802108437860A2
:106634003D48C0683D498006800E086001F0E8F9D5
:1066440001F0ECF92F490098884201D1002008E0BC
:106654002D490988002902D02C49098800E0616885
:10666400401A00902E480068012803D17868082158
:1066740008437860112060802D480121C163C16BFB
:106684000029FCD12A48C038C0692A49086000980A
:10669400FFF72CFFA060122060802979A06801F028
:1066A400C3F901202449800708602078401C207029
:1066B4001320608021488169FF22C1321143816126
:1066C4001F4841691B4841601748403841691948CF
:1066D40081601C48806A804711480068012803D102
:1066E4007968802081437960174801684900FCD5A6
:1066F40062B6019880F310883046FEBD040204108F
:10670400F0000410FFFF0000940004109C0004102B
:10671400A27B00108C01041000E0004000B0004097
:10672400DC1F04100010014040080240AC7B001044
:10673400C0000440B07B001000E100E000E2004033
:1067440000000240900D041000E200E0C106C90EF2
:1067540001208840364908607047C106C90E0120EF
:1067640088403349803108607047C106C90E012052
:10677400884030490860704770B501F05BF9012525
:10678400ED036C1063102C4A002812D00020106016
:10679400401E90631820FFF7E8FF506928435061BA
:1067A4005069204350615069184350611820FFF725
:1067B400DCFF2248906322480168890706D0D16A29
:1067C4002943D162116B294311631562016889065B
:1067D400890F06D0D16A2143D162116B2143116321
:1067E400146200688005800F06D0D06A1843D06216
:1067F400106B1843106313621820FFF7A7FF1F20C4
:10680400FFF7A4FF1520FFF7A1FF1B20FFF79EFF52
:1068140070BD10B50B48052181700B4A012111622E
:106824004068002801D00948016001F009F910BD51
:1068340000E100E080E200E000100140FFFF000002
:1068440000F000404001041000B00040347C00100F
:10685400F8B54F480078012601281BD14D484068FF
:10686400012817D14C48816A4C4A11404C4A1143C3
:106874008162C16A4B4A11403143C1624A49886806
:106884004A4A10404A4A10438860486877221202F4
:1068940090434860474805686869C00701D0286983
:1068A400FAE7454800688000400F030001F0CEF885
:1068B4000805080B0E1114171A1CE124640213E0D6
:1068C400E124A40210E0E124E4020DE0E124240325
:1068D4000AE0E124240207E04B24640204E04B2490
:1068E400240201E04B24E40134480768344821467B
:1068F4004743384601F05CF882B220465043391AC7
:106904000020230902E0401CC0B2C91A8B42FAD30A
:10691400401C41080020A862D2000A436A62294947
:106924000E60214980310A68120912010A60A860C8
:10693400A86902210843A861F8BD30B4224B1D4C5C
:106944009A601960586024680A290DD10578042DCD
:106954000AD145780E2D07D105791F2D04D1407930
:10696400202801D1491E1960002908D06068C00799
:10697400FCD0586805782560401C5860F2E7002078
:106984005860002A02D0986030BC104730BC704771
:10699400D9000410387C001080B10040FFFFC0C053
:1069A40000000302C0C0FFFF40B00040FF8888FF22
:1069B400001111005C01041028080410C01F041009
:1069C4001027000000E100E068190410FEB54049FA
:1069D4003E48096888473F4D00203E4A3E4B503DA3
:1069E400411C2624490744430A26490FA418464358
:1069F400F7187C800A246143374C4919403C341908
:106A04006187401C0828EBDB344C2068F021884364
:106A1400E0210843206031489621C030026B520ABD
:106A240052020A430263016B2D4A11402D4A11435D
:106A340001632D48E0602068E100884320602068FD
:106A440049108843206006222849684600F08AFEDF
:106A5400694608884988090401436162694688884F
:106A6400A062206861158843084320601B48072101
:106A7400803001611C49183901631B492431416389
:106A84001449C03981631A480A21007C48434019DB
:106A9400E062FFF71CFA012000F0DEFF00F0E2FFE5
:106AA40014480078002801D000F0E2FF00F0E6FF6F
:106AB40011480068012808D1104841680822114390
:106AC40041604168802211434160FEBD900D041075
:106AD400EC000410CA0A0000800A034000000440CD
:106AE400FFFF00FC0000E5013A030000B2F80100DA
:106AF4009C0B0410A4000410DC1F041000100140BF
:106B0400F8B50F462A490646096815460520884700
:106B14002849C8680122800FC007274C00281ED0CE
:106B24000020C860F30705D0B30702D50323CB6068
:106B340000E0CA602668700019D00020206003209D
:106B440000F0A2FF01204002430100E02668002D6E
:106B540003D019463142EDD0F8E70146FAE7F007D1
:106B640005D0B00702D50320C86000E0CA60002D3C
:106B740002D0012D03D005E06760226002E0676067
:106B8400022020602068012D01D0F8BD2068C104D6
:106B9400FCD58104FAD54004F8D500202060F8BD66
:106BA40005480021416001600168022101607047CD
:106BB4001002041000E0004000D00040F849884270
:106BC40001D300207047F7494118952901D20120CB
:106BD4007047F549FF2241181632914201D2022032
:106BE4007047F1498B3140188B2801D2032070473C
:106BF4000420704729210901884201D200207047EE
:106C0400411A132901D201207047E8494118122979
:106C140001D202207047E54912394118122901D2E4
:106C240003207047E14924394118242901D2042062
:106C34007047DE4948394118122901D205207047AE
:106C4400DA495A3941185B2901D2062070476B2171
:106C5400C900401ADA2801D207207047082070477B
:106C6400D3490001081A41030203891882028918D2
:106C740042028918020289188201891802018918BE
:106C8400C200891808180121C904002802DD40182F
:106C940000157047081A00154042704708B5800077
:106CA4000090002801DD401EFAE708BDF0B5064655
:106CB400C148C04F416889B000250722120491439E
:106CC4000522120411434160BC484168F9220902BB
:106CD400090A12061143C909C9010322114341607B
:106CE4000D22B449120208390A60B5498A690C2395
:106CF400120912011A438A61826838239A431823BD
:106D04001A43826008690A15104308612820FFF7B6
:106D1400C5FFAC4804690921684600F0BBFEA549DB
:106D24006A4608390DE04868C003FCD50A20FFF71D
:106D3400B5FF3868A300D05045194868C003FCD497
:106D4400641E002CEFD19C48416807221204914331
:106D540001225204114341609A480169284600F017
:106D640027FE01469848806BC0000CD496484030FA
:106D740082698069120603D54006400E404203E052
:106D84004006400E00E00020081A002E00D03060BB
:106D9400FFF766FF09B0F0BD8C498002401801027C
:106DA4008201891842018918C20089180818012132
:106DB40089044018C00C7047F0B57F4906467D4FE2
:106DC4000025486889B03F1D07221204904305221C
:106DD40012041043486079494868FB220002000A03
:106DE40012061043C009C0010222104348600D225C
:106DF4007048120208380260714A90690C23000935
:106E04000001184390618868382398431823184375
:106E1400886010690915084310616A4804692820CC
:106E2400FFF73CFF0921684600F034FE61496A46D9
:106E340008390DE04868C003FCD50A20FFF72EFF8F
:106E44003868A300D05045194868C003FCD4641EB8
:106E5400002CEFD1584948680722120401249043BA
:106E640064042043486057480169284600F0A0FDA7
:106E740002465548816B89000AD4816B8901816B74
:106E840003D5C901C90D494203E0C901C90D00E098
:106E94000021806B400013D44B48403083698069E3
:106EA4001D024B4B07D51840082801D9012000E0EA
:106EB4000020404205E01840082801D9012000E0E4
:106EC4000020511A6B22D200891A48438000890499
:106ED4004018910440180019800C002E00D0306036
:106EE400FFF75AFF56E7FEB5002858D03548C0686A
:106EF400002854D001A8FFF75FFF364C01992163A5
:106F04000904081820636846FFF7D0FE6063009800
:106F140020622A4C23680720000283430198FFF76C
:106F240069FE810040182749243945180098FFF765
:106F340045FE285C4007400D18432060264A5069EE
:106F4400264CC1096069C9011E239843F327009E9A
:106F5400FF0010250223BE4201D9342605E0114F5B
:106F64002D37F7195B2F02D8442631433FE00D4DEE
:106F7400893577190E255B2F01D85526F5E70A4F79
:106F8400BF1EF719892F01D85626EEE7064D5A354C
:106F940075195B2D24D8672529430A2527E098E035
:106FA400FF07000096F8FFFFABF9FFFF5DFDFFFF51
:106FB400A0760000C8B1004000F0004000F400409A
:106FC40000B00040C87C001000A00040433D000019
:106FD40000FF7F00C07F0010000002400008024054
:106FE400FE4D75195B2D04D87825294306252843C1
:106FF40002E079252943184351616061F84CF9494D
:10700400956800206D086D009560D569F64E354091
:10701400D561D5691D43D561F326009DF600B542BF
:1070240006D90C254543F14E2F197E60F04E3FE002
:10703400F04EAE195B2E06D80C254543EE4E2F19A3
:107044007E60EE4E34E0EB4E5C36AE195B2E06D815
:107054000C254543EA4E2F197E60EA4E28E0DF4EA8
:10706400B83EAE19892E06D80C254543E64E2F1995
:107074007E60E64E1CE0D94E5C3EAE195B2E06D80F
:107084000C254543E24E2F197E60E24E10E0D34EAC
:10709400AD195B2D06D80C254543DF4E2F197E60B4
:1070A400DE4E05E00C254543DD4E2F197E60DD4E96
:1070B4006D186E60401C2828AED3D0699843D06107
:1070C400D069C949C9430843D06190680121084384
:1070D4009060FEBD012006E70023036003681B04E3
:1070E400FCD501238B40D04913430B600168002970
:1070F400FCDA08467047F0B5CC4987B08A6D0022A7
:1071040001928968CA4C00297ED000287DD0C948E4
:107114008068C004C50EC8480495C068C74E800B7B
:10712400C0072BD0C048001D072100910290A1691F
:107134003143A161019A0099FFF7CEFF4708C04986
:1071440040040F40400C0743A069B043A061019A7A
:1071540000990298FFF7C0FF4408B94940040C4065
:10716400400C0443390B200B0591401A00D54042D2
:10717400800200F01DFC064603943EE0AA48B14F8D
:107184000830029006200090A848406D7D21090235
:107194008842D9D1AC4FD7E7064604950394BC4244
:1071A40003D21F2D04D26D1C02E0002D00D06D1EF1
:1071B400A04988681F22120290432A0202438A606F
:1071C4000120FFF76BFD019A00990298FFF784FFF5
:1071D40044089B4940040C40400C04430598210B8F
:1071E400081A059900D54042800200F0E1FB1F2DEA
:1071F40005D0002D03D0B04201DA0528CCDCB04222
:107204000CDD8C49039C01E016E02AE088681F220B
:1072140012029043049A120202438A608B4AA00B22
:10722400B90B504300F0C4FB894908607F480068EB
:10723400096888420FD114E0A06904210843A061C1
:1072440008210843A06182488049016077490968A0
:107254000068814205D07F480168002901D0006898
:107264008047724C6068012809D100206060204684
:10727400383000F05CFA00F01DFA00F046FA21689C
:1072840073480268914203D00068206000F03DFA20
:1072940007B0F0BD01202EE7644B10B552001C333B
:1072A400DA601A466432D06011610028184602D0B0
:1072B40000F03DFA10BD00F0F3FB10BD00B5012055
:1072C400FFF7ECFC00BD00B50220FFF7E7FC00BDB2
:1072D40000B56420FFF7E2FC00BD00B5A020FFF775
:1072E400DDFC00BDF0B58FB0002005905A488069E0
:1072F400000E03904F4880680990C008C0004D49B3
:10730400801D8860554A50690B9055485061554816
:10731400C1680A915449C1600121544809040162B9
:10732400FF215348083181605249086801270890B9
:1073340038433B46086090680790B8439060D06932
:107344004D490690084002210843D061506940002D
:10735400400850614948D0601469600040081061D9
:107364000021516053600120FFF798FC51606420B4
:10737400FFF794FC3B484030006A0006450DFE07C9
:10738400204630431061516057600120FFF786FCAE
:1073940051606420FFF782FC32484030006A0006E6
:1073A400400F05435069364B18402B0503433343C4
:1073B400536103204007204310615160576001204E
:1073C400FFF76CFC51606420FFF768FC0027254A36
:1073D4003E463D46403251622A4855E061FAFFFF7D
:1073E40000280240002A0240FFCFEFFEAF343D42A6
:1073F400AF340142C3F8FFFFAF443D42AF44014202
:10740400AF553D42AF550142AF563D42AF560142E2
:10741400AF673D42AF670142AF783D42AF7801426A
:10742400AF793D42AF79014200C00040487C001072
:1074340000B0004000F400402808041000020000DE
:107444000080FF3F80BA8C0100409601280A0000AA
:10745400C01F0410C41F041040A0004000000240DC
:107464005591026A400802400F8000000018044051
:10747400004A024000500240FF8F0FF86227C60501
:10748400FFFF0F807F000100614B1862A020FFF70F
:1074940005FC01205062A020FFF700FC906A5162B5
:1074A400C7195B4B5B4818620220FFF7F7FB01200A
:1074B4005062A020FFF7F2FB906A6D1C8619102D14
:1074C40089D300205062B91B534800F071FA074673
:1074D4005248806B002803DB0398002800D0870003
:1074E4004F4800250D904F4869000E18800431461E
:1074F40000F05EFA4B4A3146504300F059FA494ACB
:107504003146504300F054FA01217843C90440182D
:10751400000DFF2800D9FF20002D00D105900C217B
:107524000D9A69438A189168090A09020143916016
:107534006D1C282DD7D33C4804610B9941613B4A0B
:10754400089911603A4A00219160314A1162394A1E
:107554000A99D1600699C161374A09999160816895
:107564000799816035490598886305980FB0F0BD87
:107574003EB500240125002814D0012811D0042888
:107584001ED006280DD10120FFF7ADFC0095042381
:107594002B4A2CA130480295019400F087FAFFF79A
:1075A400A1FE3EBD0120FFF7A6FD00F0AEF82A487B
:1075B40008230095294A2AA11C300295019423E04E
:1075C4002A4800682A490968401A2A4948432A492E
:1075D40000F0EEF929490A684B68821820465841A0
:1075E4000A6048601C481C3845600020FFF783FD92
:1075F40000F08BF80120FFF776FC00950423104A75
:1076040010A115480295019400F050FA3EBD000007
:10761400001804408000010000B8130000A00040DE
:1076240000280240620900000000024000500240AD
:10763400004A02404008024000F40040C07F0010AD
:10764400D9700010566261745F5674656D705F4343
:10765400616C696200000000647C00109972001083
:1076640032364D5F43616C69620000009C7B001000
:10767400B07B00107102000020A10700400204103A
:1076840002462C490020C043096804E08A4201D123
:107694000020704789690029F8D1704710B5044665
:1076A4000B460846FFF7ECFF002802D020689861DB
:1076B400236010BDF8B51F4E00252F46306821E029
:1076C4001D4A8469816813685268591ABA4117D3EC
:1076D400017900290CD0184BC26819685B685118ED
:1076E40005468160016900290BD04069884708E09C
:1076F4003168814201D1346000E0AC618761F1E717
:10770400054620460028DBD1F8BD10B50B480168BA
:107714000B4841430B48491E41610B490722CB6981
:107724001C02240A0023CC618361026110BD01465E
:107734000048B3E71C02041040020410C01F0410E8
:107744008813000000E000E004ED00E003B4014809
:10775400019001BDF9A2010003B40148019001BDEB
:10776400E99F010003B40148019001BD29DE010035
:1077740003B40148019001BD51A2010003B40148C2
:10778400019001BD17DE010003B40148019001BD61
:107794009DBB010003B40148019001BD11BF01006C
:1077A40003B40148019001BDADD0010003B4014808
:1077B400019001BD9FBB010003B40148019001BDCC
:1077C400D5BF010003B40148019001BDD1BD010042
:1077D40003B40148019001BD9FB9010003B40148FD
:1077E400019001BD7DBB010003B40148019001BDBE
:1077F400DDDB010003B40148019001BD1502000066
:1078040003B40148019001BD3BB8010003B4014831
:10781400019001BD5BDC010003B40148019001BD8E
:1078240037CF010003B40148019001BDD1D4010058
:1078340003B40148019001BDEDD4010003B4014833
:10784400019001BDFBCF010003B40148019001BDCB
:10785400B70A000003B40148019001BD170E0000EF
:1078640003B40148019001BDD500000003B40148F0
:10787400019001BDBFCD010003B40148019001BDD9
:10788400F5D6010003B40148019001BDFBB7010026
:1078940003B40148019001BD150B000003B4014875
:1078A400019001BDD5BD010003B40148019001BDA3
:1078B400E311000003B40148019001BDDD2E010075
:1078C40003B40148019001BD8566000003B401487A
:1078D400019001BD5166000003B40148019001BD4F
:1078E400AF2F010003B40148019001BD47660000B9
:1078F40003B40148019001BD8150000003B4014864
:10790400019001BD01BA010003B40148019001BD19
:10791400AF31010003B40148019001BDF35D0000E3
:1079240003B40148019001BDAF82000003B40148D3
:10793400019001BD3D53000003B40148019001BD15
:10794400BF90010003B40148019001BD1DBA0100BC
:1079540003B40148019001BDDB8B010003B401486D
:10796400019001BD7DA2010003B40148019001BD55
:1079740033A4010003B40148019001BDC7A4010070
:1079840003B40148019001BD77D5010003B4014857
:10799400019001BD819C010003B40148019001BD27
:1079A400A1A2010003B40148019001BD01DD010061
:1079B40003B40148019001BDD5DC010003B40148C2
:1079C400019001BDA7B2010003B40148019001BDBB
:1079D400479C010003B40148019001BD31B7010087
:1079E40003B40148019001BD43A5010003B401485B
:1079F400019001BD9913000003B40148019001BD39
:107A0400D331010003B40148019001BDD1960100B6
:107A140003B40148019001BDDBC9010003B401486E
:107A2400019001BD3DC9010003B40148019001BDAD
:107A34003968000003B40148019001BD03CC010082
:107A440003B40148019001BD83CD010003B4014892
:107A5400019001BD83E2010003B40148019001BD1E
:107A64002D6A000003B40148019001BDFFC9010063
:107A740003B40148019001BD016A000003B4014848
:107A8400019001BD99C9010003B40148019001BDF1
:107A94005DCB010003B40148019001BD5BDE010030
:107AA40003B40148019001BD51D7010003B401485A
:107AB400019001BDFDD60100000010260000000069
:107AC400587B0010D80004100100010005080000D4
:107AD4008596010000030000B55F0010010300005B
:107AE400F7920100020300007993010003030000F0
:107AF400A393010004030000D59301000A030000CE
:107B040003940100050300007F9401000F030000AB
:107B1400B194010012030000E59401001303000076
:107B240035950100140300006B9501001503000056
:107B3400AB95010016030000F19501001703000046
:107B44003B960100180300002B940100330300004E
:107B54003D600010D07A001011000000DF530010C7
:107B64002B54001035540010C3540010E554001079
:107B740000000000FBBE01003F690010F3BE0100DD
:107B8400F5BE010000000000040000000000000039
:107B940001000000000000000000000001000100DE
:107BA40000000000000000001100000000000000C0
:107BB4000000000000000000130C000095510010AC
:107BC4000B0E00000F520010000000000000000027
:107BD400BC7B001002000000CC7B0010D47B0010A2
:107BE400EC7B001001000800000000000000000011
:107BF40000380000F1520010013800000553001055
:107C0400023800004953001000000000000000008A
:107C1400F47B00100300000000000000147C00103E
:107C24002C7C00100100080000000000000000008F
:107C3400000000000101000000000000056B0010BE
:107C44002F00000000000000000000000100000000
:107C540000000000A00FB80B0000000000000000AE
:107C64000000000000000000000000000000000010
:107C74000000000000000000000000000000000000
:107C840000000000000000000000000000000000F0
:107C940000000000000000000000000000000000E0
:107CA4000505050505050505050505050505050481
:107CB4000404040404040404040303030303020289
:107CC40002020201010101010000000000000000A5
:087CD40001000000080000009F
:04000005000000C136
:00000001FF
